{
  "address": "0xAa30E9D3708c9B95736DA3Ecb6997EbA051Ff619",
  "abi": [
    {
      "anonymous": false,
      "inputs": [
        {
          "indexed": true,
          "internalType": "contract CollectionProxy",
          "name": "proxy",
          "type": "address"
        },
        {
          "indexed": false,
          "internalType": "address",
          "name": "owner",
          "type": "address"
        },
        {
          "indexed": false,
          "internalType": "string",
          "name": "name",
          "type": "string"
        },
        {
          "indexed": false,
          "internalType": "string",
          "name": "symbol",
          "type": "string"
        },
        {
          "indexed": false,
          "internalType": "string",
          "name": "uri",
          "type": "string"
        },
        {
          "indexed": false,
          "internalType": "address",
          "name": "creator",
          "type": "address"
        },
        {
          "indexed": false,
          "internalType": "uint256",
          "name": "supply",
          "type": "uint256"
        },
        {
          "indexed": false,
          "internalType": "address",
          "name": "imp",
          "type": "address"
        },
        {
          "indexed": false,
          "internalType": "address",
          "name": "admin",
          "type": "address"
        },
        {
          "indexed": false,
          "internalType": "bytes32",
          "name": "salt",
          "type": "bytes32"
        },
        {
          "components": [
            {
              "internalType": "contract IERC20",
              "name": "payToken",
              "type": "address"
            },
            {
              "internalType": "uint256",
              "name": "price",
              "type": "uint256"
            },
            {
              "internalType": "uint64",
              "name": "open",
              "type": "uint64"
            },
            {
              "internalType": "uint64",
              "name": "close",
              "type": "uint64"
            },
            {
              "internalType": "string",
              "name": "uri",
              "type": "string"
            }
          ],
          "indexed": false,
          "internalType": "struct CollectionWrapper.Param",
          "name": "param",
          "type": "tuple"
        }
      ],
      "name": "Deployed",
      "type": "event"
    },
    {
      "inputs": [
        {
          "internalType": "address",
          "name": "owner",
          "type": "address"
        },
        {
          "internalType": "string",
          "name": "name",
          "type": "string"
        },
        {
          "internalType": "string",
          "name": "symbol",
          "type": "string"
        },
        {
          "internalType": "string",
          "name": "uri",
          "type": "string"
        },
        {
          "internalType": "address",
          "name": "creator",
          "type": "address"
        },
        {
          "internalType": "uint256",
          "name": "supply",
          "type": "uint256"
        },
        {
          "internalType": "address",
          "name": "imp",
          "type": "address"
        },
        {
          "internalType": "address",
          "name": "admin",
          "type": "address"
        },
        {
          "internalType": "bytes32",
          "name": "salt",
          "type": "bytes32"
        },
        {
          "components": [
            {
              "internalType": "contract IERC20",
              "name": "payToken",
              "type": "address"
            },
            {
              "internalType": "uint256",
              "name": "price",
              "type": "uint256"
            },
            {
              "internalType": "uint64",
              "name": "open",
              "type": "uint64"
            },
            {
              "internalType": "uint64",
              "name": "close",
              "type": "uint64"
            },
            {
              "internalType": "string",
              "name": "uri",
              "type": "string"
            }
          ],
          "internalType": "struct CollectionWrapper.Param",
          "name": "param",
          "type": "tuple"
        }
      ],
      "name": "deploy",
      "outputs": [
        {
          "internalType": "contract CollectionProxy",
          "name": "proxy",
          "type": "address"
        }
      ],
      "stateMutability": "nonpayable",
      "type": "function"
    },
    {
      "inputs": [
        {
          "internalType": "address",
          "name": "owner",
          "type": "address"
        },
        {
          "internalType": "string",
          "name": "name",
          "type": "string"
        },
        {
          "internalType": "string",
          "name": "symbol",
          "type": "string"
        },
        {
          "internalType": "string",
          "name": "uri",
          "type": "string"
        },
        {
          "internalType": "address",
          "name": "creator",
          "type": "address"
        },
        {
          "internalType": "uint256",
          "name": "supply",
          "type": "uint256"
        },
        {
          "internalType": "address",
          "name": "imp",
          "type": "address"
        },
        {
          "internalType": "address",
          "name": "admin",
          "type": "address"
        },
        {
          "internalType": "bytes32",
          "name": "salt",
          "type": "bytes32"
        },
        {
          "components": [
            {
              "internalType": "contract IERC20",
              "name": "payToken",
              "type": "address"
            },
            {
              "internalType": "uint256",
              "name": "price",
              "type": "uint256"
            },
            {
              "internalType": "uint64",
              "name": "open",
              "type": "uint64"
            },
            {
              "internalType": "uint64",
              "name": "close",
              "type": "uint64"
            },
            {
              "internalType": "string",
              "name": "uri",
              "type": "string"
            }
          ],
          "internalType": "struct CollectionWrapper.Param",
          "name": "param",
          "type": "tuple"
        }
      ],
      "name": "getAddress",
      "outputs": [
        {
          "internalType": "address",
          "name": "",
          "type": "address"
        }
      ],
      "stateMutability": "view",
      "type": "function"
    },
    {
      "inputs": [
        {
          "internalType": "address",
          "name": "owner",
          "type": "address"
        },
        {
          "internalType": "string",
          "name": "name",
          "type": "string"
        },
        {
          "internalType": "string",
          "name": "symbol",
          "type": "string"
        },
        {
          "internalType": "string",
          "name": "uri",
          "type": "string"
        },
        {
          "internalType": "address",
          "name": "creator",
          "type": "address"
        },
        {
          "internalType": "uint256",
          "name": "supply",
          "type": "uint256"
        },
        {
          "internalType": "address",
          "name": "imp",
          "type": "address"
        },
        {
          "internalType": "address",
          "name": "admin",
          "type": "address"
        },
        {
          "components": [
            {
              "internalType": "contract IERC20",
              "name": "payToken",
              "type": "address"
            },
            {
              "internalType": "uint256",
              "name": "price",
              "type": "uint256"
            },
            {
              "internalType": "uint64",
              "name": "open",
              "type": "uint64"
            },
            {
              "internalType": "uint64",
              "name": "close",
              "type": "uint64"
            },
            {
              "internalType": "string",
              "name": "uri",
              "type": "string"
            }
          ],
          "internalType": "struct CollectionWrapper.Param",
          "name": "param",
          "type": "tuple"
        }
      ],
      "name": "getByteCode",
      "outputs": [
        {
          "internalType": "bytes",
          "name": "",
          "type": "bytes"
        }
      ],
      "stateMutability": "pure",
      "type": "function"
    },
    {
      "inputs": [
        {
          "internalType": "address",
          "name": "owner",
          "type": "address"
        },
        {
          "internalType": "string",
          "name": "name",
          "type": "string"
        },
        {
          "internalType": "string",
          "name": "symbol",
          "type": "string"
        },
        {
          "internalType": "string",
          "name": "uri",
          "type": "string"
        },
        {
          "internalType": "address",
          "name": "creator",
          "type": "address"
        },
        {
          "internalType": "uint256",
          "name": "supply",
          "type": "uint256"
        },
        {
          "components": [
            {
              "internalType": "contract IERC20",
              "name": "payToken",
              "type": "address"
            },
            {
              "internalType": "uint256",
              "name": "price",
              "type": "uint256"
            },
            {
              "internalType": "uint64",
              "name": "open",
              "type": "uint64"
            },
            {
              "internalType": "uint64",
              "name": "close",
              "type": "uint64"
            },
            {
              "internalType": "string",
              "name": "uri",
              "type": "string"
            }
          ],
          "internalType": "struct CollectionWrapper.Param",
          "name": "param",
          "type": "tuple"
        }
      ],
      "name": "getData",
      "outputs": [
        {
          "internalType": "bytes",
          "name": "",
          "type": "bytes"
        }
      ],
      "stateMutability": "pure",
      "type": "function"
    }
  ],
  "transactionHash": "0x191eb2aa3ef6b9ce3fef621816f645c8da235d7aa4a058a717526e2f875b8118",
  "args": [],
  "bytecode": "0x608060405234801561001057600080fd5b50611366806100206000396000f3fe60806040523480156200001157600080fd5b5060043610620000525760003560e01c80636e0cc8151462000057578063abb198bc1462000086578063d81eca5f146200009d578063edb903bc14620000cd575b600080fd5b6200006e620000683660046200068b565b620000e4565b6040516200007d919062000989565b60405180910390f35b6200006e6200009736600462000581565b6200014c565b620000b4620000ae3660046200046c565b620001e4565b6040516001600160a01b0390911681526020016200007d565b620000b4620000de3660046200046c565b6200026f565b6060635109930960e01b888888888888886040516024016200010d979695949392919062000908565b60408051601f198184030181529190526020810180516001600160e01b03166001600160e01b0319909316929092179091529050979650505050505050565b606060006040518060200162000162906200032d565b601f1982820381018352601f90910116604052905060006200018a8c8c8c8c8c8c8a620000e4565b905081868683604051602001620001a4939291906200082f565b60408051601f1981840301815290829052620001c49291602001620007fc565b604051602081830303815290604052925050509998505050505050505050565b6000803084620001fc8e8e8e8e8e8e8e8e8d6200014c565b805160209182012060405162000247949392016001600160f81b0319815260609390931b6bffffffffffffffffffffffff191660018401526015830191909152603582015260550190565b60408051808303601f1901815291905280516020909101209c9b505050505050505050505050565b600080620002838c8c8c8c8c8c89620000e4565b90508386868360405162000297906200032d565b620002a5939291906200082f565b8190604051809103906000f5905080158015620002c6573d6000803e3d6000fd5b509150816001600160a01b03167fc25099996231e5fd6adcd84013c1f4ed20cdb9298fdeb55a8073becac36236758d8d8d8d8d8d8d8d8d8d604051620003169a9998979695949392919062000866565b60405180910390a2509a9950505050505050505050565b6108f58062000a3c83390190565b8035620003488162000a22565b919050565b600082601f8301126200035e578081fd5b813567ffffffffffffffff8111156200037b576200037b62000a0c565b62000390601f8201601f1916602001620009a5565b818152846020838601011115620003a5578283fd5b816020850160208301379081016020019190915292915050565b600060a08284031215620003d1578081fd5b620003dd60a0620009a5565b90508135620003ec8162000a22565b815260208281013590820152620004066040830162000453565b6040820152620004196060830162000453565b6060820152608082013567ffffffffffffffff8111156200043957600080fd5b62000447848285016200034d565b60808301525092915050565b803567ffffffffffffffff811681146200034857600080fd5b6000806000806000806000806000806101408b8d0312156200048c578586fd5b620004978b6200033b565b995060208b013567ffffffffffffffff80821115620004b4578788fd5b620004c28e838f016200034d565b9a5060408d0135915080821115620004d8578788fd5b620004e68e838f016200034d565b995060608d0135915080821115620004fc578788fd5b6200050a8e838f016200034d565b98506200051a60808e016200033b565b975060a08d013596506200053160c08e016200033b565b95506200054160e08e016200033b565b94506101008d013593506101208d013591508082111562000560578283fd5b506200056f8d828e01620003bf565b9150509295989b9194979a5092959850565b60008060008060008060008060006101208a8c031215620005a0578485fd5b620005ab8a6200033b565b985060208a013567ffffffffffffffff80821115620005c8578687fd5b620005d68d838e016200034d565b995060408c0135915080821115620005ec578687fd5b620005fa8d838e016200034d565b985060608c013591508082111562000610578687fd5b6200061e8d838e016200034d565b97506200062e60808d016200033b565b965060a08c013595506200064560c08d016200033b565b94506200065560e08d016200033b565b93506101008c01359150808211156200066c578283fd5b506200067b8c828d01620003bf565b9150509295985092959850929598565b600080600080600080600060e0888a031215620006a6578283fd5b620006b1886200033b565b9650602088013567ffffffffffffffff80821115620006ce578485fd5b620006dc8b838c016200034d565b975060408a0135915080821115620006f2578485fd5b620007008b838c016200034d565b965060608a013591508082111562000716578485fd5b620007248b838c016200034d565b95506200073460808b016200033b565b945060a08a0135935060c08a013591508082111562000751578283fd5b50620007608a828b01620003bf565b91505092959891949750929550565b6000815180845262000789816020860160208601620009d9565b601f01601f19169290920160200192915050565b600060018060a01b03825116835260208201516020840152604082015167ffffffffffffffff80821660408601528060608501511660608601525050608082015160a06080850152620007f460a08501826200076f565b949350505050565b6000835162000810818460208801620009d9565b83519083019062000826818360208801620009d9565b01949350505050565b6001600160a01b038481168252831660208201526060604082018190526000906200085d908301846200076f565b95945050505050565b6001600160a01b038b81168252610140602083018190526000916200088e8483018e6200076f565b91508382036040850152620008a4828d6200076f565b91508382036060850152620008ba828c6200076f565b9150808a1660808501528860a085015280881660c085015280871660e08501525084610100840152828103610120840152620008f781856200079d565b9d9c50505050505050505050505050565b600060018060a01b03808a16835260e060208401526200092c60e084018a6200076f565b838103604085015262000940818a6200076f565b905083810360608501526200095681896200076f565b905081871660808501528560a085015283810360c08501526200097a81866200079d565b9b9a5050505050505050505050565b6000602082526200099e60208301846200076f565b9392505050565b604051601f8201601f1916810167ffffffffffffffff81118282101715620009d157620009d162000a0c565b604052919050565b60005b83811015620009f6578181015183820152602001620009dc565b8381111562000a06576000848401525b50505050565b634e487b7160e01b600052604160045260246000fd5b6001600160a01b038116811462000a3857600080fd5b5056fe608060405234801561001057600080fd5b506040516108f53803806108f583398101604081905261002f91610457565b828161005c60017f360894a13ba1a3210667c828492db98dca3e2076cc3735a920a3ca505d382bbd610572565b6000805160206108ae8339815191521461008657634e487b7160e01b600052600160045260246000fd5b610092828260006100a6565b5061009e9050826100dc565b5050506105d7565b6100af83610133565b6000825111806100bc5750805b156100d7576100d5838361017360201b6100291760201c565b505b505050565b7f7e644d79422f17c01e4894b5f4f588d331ebfa28653d42ae832dc59e38c9798f61010561019f565b604080516001600160a01b03928316815291841660208301520160405180910390a1610130816101d4565b50565b61013c81610284565b6040516001600160a01b038216907fbc7cd75a20ee27fd9adebab32041f755214dbc6bffa90cc0225b39da2e5c2d3b90600090a250565b606061019883836040518060600160405280602781526020016108ce6027913961031e565b9392505050565b60006101c560008051602061088e83398151915260001b6103fa60201b6100551760201c565b546001600160a01b0316905090565b6001600160a01b03811661023e5760405162461bcd60e51b815260206004820152602660248201527f455243313936373a206e65772061646d696e20697320746865207a65726f206160448201526564647265737360d01b60648201526084015b60405180910390fd5b8061026360008051602061088e83398151915260001b6103fa60201b6100551760201c565b80546001600160a01b0319166001600160a01b039290921691909117905550565b610297816103fd60201b6100581760201c565b6102f95760405162461bcd60e51b815260206004820152602d60248201527f455243313936373a206e657720696d706c656d656e746174696f6e206973206e60448201526c1bdd08184818dbdb9d1c9858dd609a1b6064820152608401610235565b806102636000805160206108ae83398151915260001b6103fa60201b6100551760201c565b6060610329846103fd565b6103845760405162461bcd60e51b815260206004820152602660248201527f416464726573733a2064656c65676174652063616c6c20746f206e6f6e2d636f6044820152651b9d1c9858dd60d21b6064820152608401610235565b600080856001600160a01b03168560405161039f9190610523565b600060405180830381855af49150503d80600081146103da576040519150601f19603f3d011682016040523d82523d6000602084013e6103df565b606091505b5090925090506103f0828286610407565b9695505050505050565b90565b803b15155b919050565b60608315610416575081610198565b8251156104265782518084602001fd5b8160405162461bcd60e51b8152600401610235919061053f565b80516001600160a01b038116811461040257600080fd5b60008060006060848603121561046b578283fd5b61047484610440565b925061048260208501610440565b60408501519092506001600160401b038082111561049e578283fd5b818601915086601f8301126104b1578283fd5b8151818111156104c3576104c36105c1565b604051601f8201601f19908116603f011681019083821181831017156104eb576104eb6105c1565b81604052828152896020848701011115610503578586fd5b610514836020830160208801610595565b80955050505050509250925092565b60008251610535818460208701610595565b9190910192915050565b600060208252825180602084015261055e816040850160208701610595565b601f01601f19169190910160400192915050565b60008282101561059057634e487b7160e01b81526011600452602481fd5b500390565b60005b838110156105b0578181015183820152602001610598565b838111156100d55750506000910152565b634e487b7160e01b600052604160045260246000fd5b6102a8806105e66000396000f3fe60806040523661001357610011610017565b005b6100115b61002761002261005e565b610096565b565b606061004e838360405180606001604052806027815260200161024c602791396100ba565b9392505050565b90565b3b151590565b60006100917f360894a13ba1a3210667c828492db98dca3e2076cc3735a920a3ca505d382bbc546001600160a01b031690565b905090565b3660008037600080366000845af43d6000803e8080156100b5573d6000f35b3d6000fd5b6060833b61011e5760405162461bcd60e51b815260206004820152602660248201527f416464726573733a2064656c65676174652063616c6c20746f206e6f6e2d636f6044820152651b9d1c9858dd60d21b60648201526084015b60405180910390fd5b600080856001600160a01b03168560405161013991906101cc565b600060405180830381855af49150503d8060008114610174576040519150601f19603f3d011682016040523d82523d6000602084013e610179565b606091505b5091509150610189828286610193565b9695505050505050565b606083156101a257508161004e565b8251156101b25782518084602001fd5b8160405162461bcd60e51b815260040161011591906101e8565b600082516101de81846020870161021b565b9190910192915050565b600060208252825180602084015261020781604085016020870161021b565b601f01601f19169190910160400192915050565b60005b8381101561023657818101518382015260200161021e565b83811115610245576000848401525b5050505056fe416464726573733a206c6f772d6c6576656c2064656c65676174652063616c6c206661696c6564a2646970667358221220525c3fd1604c742917652cb5e934e5b4b869951e1f7e73893e20c4015d3d03c464736f6c63430008020033b53127684a568b3173ae13b9f8a6016e243e63b6e8ee1178d6a717850b5d6103360894a13ba1a3210667c828492db98dca3e2076cc3735a920a3ca505d382bbc416464726573733a206c6f772d6c6576656c2064656c65676174652063616c6c206661696c6564a264697066735822122052b4116865bed19e98bf09316285c3f7bee19a59dd1b6ccce3c0eb03e4a2461e64736f6c63430008020033"
}