{
  "address": "0x181c2B459715caB9C55fd0949De3C6153a317BF3",
  "abi": [
    {
      "anonymous": false,
      "inputs": [
        {
          "indexed": true,
          "internalType": "contract CollectionProxy",
          "name": "proxy",
          "type": "address"
        },
        {
          "indexed": false,
          "internalType": "address",
          "name": "owner",
          "type": "address"
        },
        {
          "indexed": false,
          "internalType": "string",
          "name": "name",
          "type": "string"
        },
        {
          "indexed": false,
          "internalType": "string",
          "name": "symbol",
          "type": "string"
        },
        {
          "indexed": false,
          "internalType": "string",
          "name": "uri",
          "type": "string"
        },
        {
          "indexed": false,
          "internalType": "address",
          "name": "creator",
          "type": "address"
        },
        {
          "indexed": false,
          "internalType": "address",
          "name": "imp",
          "type": "address"
        },
        {
          "indexed": false,
          "internalType": "address",
          "name": "admin",
          "type": "address"
        },
        {
          "indexed": false,
          "internalType": "bytes32",
          "name": "salt",
          "type": "bytes32"
        },
        {
          "components": [
            {
              "internalType": "contract IERC20",
              "name": "payToken",
              "type": "address"
            },
            {
              "internalType": "uint256",
              "name": "price",
              "type": "uint256"
            },
            {
              "internalType": "uint64",
              "name": "open",
              "type": "uint64"
            },
            {
              "internalType": "uint64",
              "name": "close",
              "type": "uint64"
            },
            {
              "internalType": "string",
              "name": "uri",
              "type": "string"
            }
          ],
          "indexed": false,
          "internalType": "struct CollectionWrapper.Param",
          "name": "param",
          "type": "tuple"
        }
      ],
      "name": "Deployed",
      "type": "event"
    },
    {
      "inputs": [
        {
          "internalType": "address",
          "name": "owner",
          "type": "address"
        },
        {
          "internalType": "string",
          "name": "name",
          "type": "string"
        },
        {
          "internalType": "string",
          "name": "symbol",
          "type": "string"
        },
        {
          "internalType": "string",
          "name": "uri",
          "type": "string"
        },
        {
          "internalType": "address",
          "name": "creator",
          "type": "address"
        },
        {
          "internalType": "address",
          "name": "imp",
          "type": "address"
        },
        {
          "internalType": "address",
          "name": "admin",
          "type": "address"
        },
        {
          "internalType": "bytes32",
          "name": "salt",
          "type": "bytes32"
        },
        {
          "components": [
            {
              "internalType": "contract IERC20",
              "name": "payToken",
              "type": "address"
            },
            {
              "internalType": "uint256",
              "name": "price",
              "type": "uint256"
            },
            {
              "internalType": "uint64",
              "name": "open",
              "type": "uint64"
            },
            {
              "internalType": "uint64",
              "name": "close",
              "type": "uint64"
            },
            {
              "internalType": "string",
              "name": "uri",
              "type": "string"
            }
          ],
          "internalType": "struct CollectionWrapper.Param",
          "name": "param",
          "type": "tuple"
        }
      ],
      "name": "deploy",
      "outputs": [
        {
          "internalType": "contract CollectionProxy",
          "name": "proxy",
          "type": "address"
        }
      ],
      "stateMutability": "nonpayable",
      "type": "function"
    },
    {
      "inputs": [
        {
          "internalType": "address",
          "name": "owner",
          "type": "address"
        },
        {
          "internalType": "string",
          "name": "name",
          "type": "string"
        },
        {
          "internalType": "string",
          "name": "symbol",
          "type": "string"
        },
        {
          "internalType": "string",
          "name": "uri",
          "type": "string"
        },
        {
          "internalType": "address",
          "name": "creator",
          "type": "address"
        },
        {
          "internalType": "address",
          "name": "imp",
          "type": "address"
        },
        {
          "internalType": "address",
          "name": "admin",
          "type": "address"
        },
        {
          "internalType": "bytes32",
          "name": "salt",
          "type": "bytes32"
        },
        {
          "components": [
            {
              "internalType": "contract IERC20",
              "name": "payToken",
              "type": "address"
            },
            {
              "internalType": "uint256",
              "name": "price",
              "type": "uint256"
            },
            {
              "internalType": "uint64",
              "name": "open",
              "type": "uint64"
            },
            {
              "internalType": "uint64",
              "name": "close",
              "type": "uint64"
            },
            {
              "internalType": "string",
              "name": "uri",
              "type": "string"
            }
          ],
          "internalType": "struct CollectionWrapper.Param",
          "name": "param",
          "type": "tuple"
        }
      ],
      "name": "getAddress",
      "outputs": [
        {
          "internalType": "address",
          "name": "",
          "type": "address"
        }
      ],
      "stateMutability": "view",
      "type": "function"
    },
    {
      "inputs": [
        {
          "internalType": "address",
          "name": "owner",
          "type": "address"
        },
        {
          "internalType": "string",
          "name": "name",
          "type": "string"
        },
        {
          "internalType": "string",
          "name": "symbol",
          "type": "string"
        },
        {
          "internalType": "string",
          "name": "uri",
          "type": "string"
        },
        {
          "internalType": "address",
          "name": "creator",
          "type": "address"
        },
        {
          "internalType": "address",
          "name": "imp",
          "type": "address"
        },
        {
          "internalType": "address",
          "name": "admin",
          "type": "address"
        },
        {
          "components": [
            {
              "internalType": "contract IERC20",
              "name": "payToken",
              "type": "address"
            },
            {
              "internalType": "uint256",
              "name": "price",
              "type": "uint256"
            },
            {
              "internalType": "uint64",
              "name": "open",
              "type": "uint64"
            },
            {
              "internalType": "uint64",
              "name": "close",
              "type": "uint64"
            },
            {
              "internalType": "string",
              "name": "uri",
              "type": "string"
            }
          ],
          "internalType": "struct CollectionWrapper.Param",
          "name": "param",
          "type": "tuple"
        }
      ],
      "name": "getByteCode",
      "outputs": [
        {
          "internalType": "bytes",
          "name": "",
          "type": "bytes"
        }
      ],
      "stateMutability": "pure",
      "type": "function"
    },
    {
      "inputs": [
        {
          "internalType": "address",
          "name": "owner",
          "type": "address"
        },
        {
          "internalType": "string",
          "name": "name",
          "type": "string"
        },
        {
          "internalType": "string",
          "name": "symbol",
          "type": "string"
        },
        {
          "internalType": "string",
          "name": "uri",
          "type": "string"
        },
        {
          "internalType": "address",
          "name": "creator",
          "type": "address"
        },
        {
          "components": [
            {
              "internalType": "contract IERC20",
              "name": "payToken",
              "type": "address"
            },
            {
              "internalType": "uint256",
              "name": "price",
              "type": "uint256"
            },
            {
              "internalType": "uint64",
              "name": "open",
              "type": "uint64"
            },
            {
              "internalType": "uint64",
              "name": "close",
              "type": "uint64"
            },
            {
              "internalType": "string",
              "name": "uri",
              "type": "string"
            }
          ],
          "internalType": "struct CollectionWrapper.Param",
          "name": "param",
          "type": "tuple"
        }
      ],
      "name": "getData",
      "outputs": [
        {
          "internalType": "bytes",
          "name": "",
          "type": "bytes"
        }
      ],
      "stateMutability": "pure",
      "type": "function"
    }
  ],
  "transactionHash": "0x115f0503eff486594da5401aae43b62f85d856318958ed9ea8f6d77597e91306",
  "args": [],
  "bytecode": "0x608060405234801561001057600080fd5b5061132c806100206000396000f3fe60806040523480156200001157600080fd5b5060043610620000525760003560e01c8063190a341214620000575780637a1cef7a14620000865780639d11bc9714620000b6578063ad5f097f14620000cd575b600080fd5b6200006e620000683660046200066b565b620000e4565b6040516200007d91906200094f565b60405180910390f35b6200009d6200009736600462000461565b62000149565b6040516001600160a01b0390911681526020016200007d565b6200009d620000c736600462000461565b62000203565b6200006e620000de3660046200056b565b6200028c565b606063ee8f3a6c60e01b8787878787876040516024016200010b96959493929190620008d5565b60408051601f198184030181529190526020810180516001600160e01b03166001600160e01b03199093169290921790915290509695505050505050565b6000806200015c8b8b8b8b8b88620000e4565b905083868683604051620001709062000322565b6200017e9392919062000804565b8190604051809103906000f59050801580156200019f573d6000803e3d6000fd5b509150816001600160a01b03167fd868829f03bf3a72588fb45ad9ebf8bf6ee93dba3853eb59ec8e846b6b277c8a8c8c8c8c8c8c8c8c8c604051620001ed999897969594939291906200083b565b60405180910390a2509998505050505050505050565b60008030846200021a8d8d8d8d8d8d8d8c6200028c565b805160209182012060405162000265949392016001600160f81b0319815260609390931b6bffffffffffffffffffffffff191660018401526015830191909152603582015260550190565b60408051808303601f1901815291905280516020909101209b9a5050505050505050505050565b6060600060405180602001620002a29062000322565b601f1982820381018352601f9091011660405290506000620002c98b8b8b8b8b89620000e4565b905081868683604051602001620002e39392919062000804565b60408051601f1981840301815290829052620003039291602001620007d1565b6040516020818303038152906040529250505098975050505050505050565b6108f58062000a0283390190565b80356200033d81620009e8565b919050565b600082601f83011262000353578081fd5b813567ffffffffffffffff811115620003705762000370620009d2565b62000385601f8201601f19166020016200096b565b8181528460208386010111156200039a578283fd5b816020850160208301379081016020019190915292915050565b600060a08284031215620003c6578081fd5b620003d260a06200096b565b90508135620003e181620009e8565b815260208281013590820152620003fb6040830162000448565b60408201526200040e6060830162000448565b6060820152608082013567ffffffffffffffff8111156200042e57600080fd5b6200043c8482850162000342565b60808301525092915050565b803567ffffffffffffffff811681146200033d57600080fd5b60008060008060008060008060006101208a8c03121562000480578485fd5b6200048b8a62000330565b985060208a013567ffffffffffffffff80821115620004a8578687fd5b620004b68d838e0162000342565b995060408c0135915080821115620004cc578687fd5b620004da8d838e0162000342565b985060608c0135915080821115620004f0578687fd5b620004fe8d838e0162000342565b97506200050e60808d0162000330565b96506200051e60a08d0162000330565b95506200052e60c08d0162000330565b945060e08c013593506101008c01359150808211156200054c578283fd5b506200055b8c828d01620003b4565b9150509295985092959850929598565b600080600080600080600080610100898b03121562000588578384fd5b620005938962000330565b9750602089013567ffffffffffffffff80821115620005b0578586fd5b620005be8c838d0162000342565b985060408b0135915080821115620005d4578586fd5b620005e28c838d0162000342565b975060608b0135915080821115620005f8578586fd5b620006068c838d0162000342565b96506200061660808c0162000330565b95506200062660a08c0162000330565b94506200063660c08c0162000330565b935060e08b01359150808211156200064c578283fd5b506200065b8b828c01620003b4565b9150509295985092959890939650565b60008060008060008060c0878903121562000684578182fd5b6200068f8762000330565b9550602087013567ffffffffffffffff80821115620006ac578384fd5b620006ba8a838b0162000342565b96506040890135915080821115620006d0578384fd5b620006de8a838b0162000342565b95506060890135915080821115620006f4578384fd5b620007028a838b0162000342565b94506200071260808a0162000330565b935060a089013591508082111562000728578283fd5b506200073789828a01620003b4565b9150509295509295509295565b600081518084526200075e8160208601602086016200099f565b601f01601f19169290920160200192915050565b600060018060a01b03825116835260208201516020840152604082015167ffffffffffffffff80821660408601528060608501511660608601525050608082015160a06080850152620007c960a085018262000744565b949350505050565b60008351620007e58184602088016200099f565b835190830190620007fb8183602088016200099f565b01949350505050565b6001600160a01b03848116825283166020820152606060408201819052600090620008329083018462000744565b95945050505050565b6001600160a01b038a8116825261012060208301819052600091620008638483018d62000744565b9150838203604085015262000879828c62000744565b915083820360608501526200088f828b62000744565b9150808916608085015280881660a085015280871660c0850152508460e0840152828103610100840152620008c5818562000772565b9c9b505050505050505050505050565b600060018060a01b03808916835260c06020840152620008f960c084018962000744565b83810360408501526200090d818962000744565b9050838103606085015262000923818862000744565b9050818616608085015283810360a085015262000941818662000772565b9a9950505050505050505050565b60006020825262000964602083018462000744565b9392505050565b604051601f8201601f1916810167ffffffffffffffff81118282101715620009975762000997620009d2565b604052919050565b60005b83811015620009bc578181015183820152602001620009a2565b83811115620009cc576000848401525b50505050565b634e487b7160e01b600052604160045260246000fd5b6001600160a01b0381168114620009fe57600080fd5b5056fe608060405234801561001057600080fd5b506040516108f53803806108f583398101604081905261002f91610457565b828161005c60017f360894a13ba1a3210667c828492db98dca3e2076cc3735a920a3ca505d382bbd610572565b6000805160206108ae8339815191521461008657634e487b7160e01b600052600160045260246000fd5b610092828260006100a6565b5061009e9050826100dc565b5050506105d7565b6100af83610133565b6000825111806100bc5750805b156100d7576100d5838361017360201b6100291760201c565b505b505050565b7f7e644d79422f17c01e4894b5f4f588d331ebfa28653d42ae832dc59e38c9798f61010561019f565b604080516001600160a01b03928316815291841660208301520160405180910390a1610130816101d4565b50565b61013c81610284565b6040516001600160a01b038216907fbc7cd75a20ee27fd9adebab32041f755214dbc6bffa90cc0225b39da2e5c2d3b90600090a250565b606061019883836040518060600160405280602781526020016108ce6027913961031e565b9392505050565b60006101c560008051602061088e83398151915260001b6103fa60201b6100551760201c565b546001600160a01b0316905090565b6001600160a01b03811661023e5760405162461bcd60e51b815260206004820152602660248201527f455243313936373a206e65772061646d696e20697320746865207a65726f206160448201526564647265737360d01b60648201526084015b60405180910390fd5b8061026360008051602061088e83398151915260001b6103fa60201b6100551760201c565b80546001600160a01b0319166001600160a01b039290921691909117905550565b610297816103fd60201b6100581760201c565b6102f95760405162461bcd60e51b815260206004820152602d60248201527f455243313936373a206e657720696d706c656d656e746174696f6e206973206e60448201526c1bdd08184818dbdb9d1c9858dd609a1b6064820152608401610235565b806102636000805160206108ae83398151915260001b6103fa60201b6100551760201c565b6060610329846103fd565b6103845760405162461bcd60e51b815260206004820152602660248201527f416464726573733a2064656c65676174652063616c6c20746f206e6f6e2d636f6044820152651b9d1c9858dd60d21b6064820152608401610235565b600080856001600160a01b03168560405161039f9190610523565b600060405180830381855af49150503d80600081146103da576040519150601f19603f3d011682016040523d82523d6000602084013e6103df565b606091505b5090925090506103f0828286610407565b9695505050505050565b90565b803b15155b919050565b60608315610416575081610198565b8251156104265782518084602001fd5b8160405162461bcd60e51b8152600401610235919061053f565b80516001600160a01b038116811461040257600080fd5b60008060006060848603121561046b578283fd5b61047484610440565b925061048260208501610440565b60408501519092506001600160401b038082111561049e578283fd5b818601915086601f8301126104b1578283fd5b8151818111156104c3576104c36105c1565b604051601f8201601f19908116603f011681019083821181831017156104eb576104eb6105c1565b81604052828152896020848701011115610503578586fd5b610514836020830160208801610595565b80955050505050509250925092565b60008251610535818460208701610595565b9190910192915050565b600060208252825180602084015261055e816040850160208701610595565b601f01601f19169190910160400192915050565b60008282101561059057634e487b7160e01b81526011600452602481fd5b500390565b60005b838110156105b0578181015183820152602001610598565b838111156100d55750506000910152565b634e487b7160e01b600052604160045260246000fd5b6102a8806105e66000396000f3fe60806040523661001357610011610017565b005b6100115b61002761002261005e565b610096565b565b606061004e838360405180606001604052806027815260200161024c602791396100ba565b9392505050565b90565b3b151590565b60006100917f360894a13ba1a3210667c828492db98dca3e2076cc3735a920a3ca505d382bbc546001600160a01b031690565b905090565b3660008037600080366000845af43d6000803e8080156100b5573d6000f35b3d6000fd5b6060833b61011e5760405162461bcd60e51b815260206004820152602660248201527f416464726573733a2064656c65676174652063616c6c20746f206e6f6e2d636f6044820152651b9d1c9858dd60d21b60648201526084015b60405180910390fd5b600080856001600160a01b03168560405161013991906101cc565b600060405180830381855af49150503d8060008114610174576040519150601f19603f3d011682016040523d82523d6000602084013e610179565b606091505b5091509150610189828286610193565b9695505050505050565b606083156101a257508161004e565b8251156101b25782518084602001fd5b8160405162461bcd60e51b815260040161011591906101e8565b600082516101de81846020870161021b565b9190910192915050565b600060208252825180602084015261020781604085016020870161021b565b601f01601f19169190910160400192915050565b60005b8381101561023657818101518382015260200161021e565b83811115610245576000848401525b5050505056fe416464726573733a206c6f772d6c6576656c2064656c65676174652063616c6c206661696c6564a2646970667358221220525c3fd1604c742917652cb5e934e5b4b869951e1f7e73893e20c4015d3d03c464736f6c63430008020033b53127684a568b3173ae13b9f8a6016e243e63b6e8ee1178d6a717850b5d6103360894a13ba1a3210667c828492db98dca3e2076cc3735a920a3ca505d382bbc416464726573733a206c6f772d6c6576656c2064656c65676174652063616c6c206661696c6564a2646970667358221220d542d64755abca6a7b99beede8530170b30ff154ebcd539ed299e7e094c41c9964736f6c63430008020033"
}