{
  "address": "0x2De36D45D4A69b7ee09865947b69b9D2AA02e8BE",
  "abi": [
    {
      "inputs": [],
      "stateMutability": "nonpayable",
      "type": "constructor"
    },
    {
      "anonymous": false,
      "inputs": [
        {
          "indexed": true,
          "internalType": "bytes32",
          "name": "root",
          "type": "bytes32"
        }
      ],
      "name": "AddRoot",
      "type": "event"
    },
    {
      "anonymous": false,
      "inputs": [
        {
          "indexed": true,
          "internalType": "address",
          "name": "owner",
          "type": "address"
        },
        {
          "indexed": true,
          "internalType": "address",
          "name": "approved",
          "type": "address"
        },
        {
          "indexed": true,
          "internalType": "uint256",
          "name": "tokenId",
          "type": "uint256"
        }
      ],
      "name": "Approval",
      "type": "event"
    },
    {
      "anonymous": false,
      "inputs": [
        {
          "indexed": true,
          "internalType": "address",
          "name": "owner",
          "type": "address"
        },
        {
          "indexed": true,
          "internalType": "address",
          "name": "operator",
          "type": "address"
        },
        {
          "indexed": false,
          "internalType": "bool",
          "name": "approved",
          "type": "bool"
        }
      ],
      "name": "ApprovalForAll",
      "type": "event"
    },
    {
      "anonymous": false,
      "inputs": [
        {
          "indexed": false,
          "internalType": "uint256",
          "name": "tokenId",
          "type": "uint256"
        },
        {
          "indexed": false,
          "internalType": "bytes32",
          "name": "root",
          "type": "bytes32"
        },
        {
          "indexed": false,
          "internalType": "bytes32[]",
          "name": "proofs",
          "type": "bytes32[]"
        },
        {
          "indexed": false,
          "internalType": "address",
          "name": "creator",
          "type": "address"
        },
        {
          "indexed": false,
          "internalType": "string",
          "name": "uri",
          "type": "string"
        }
      ],
      "name": "ClaimToken",
      "type": "event"
    },
    {
      "anonymous": false,
      "inputs": [
        {
          "indexed": true,
          "internalType": "address",
          "name": "to",
          "type": "address"
        },
        {
          "indexed": false,
          "internalType": "uint256",
          "name": "tokenId",
          "type": "uint256"
        }
      ],
      "name": "MintToken",
      "type": "event"
    },
    {
      "anonymous": false,
      "inputs": [
        {
          "indexed": true,
          "internalType": "address",
          "name": "previousOwner",
          "type": "address"
        },
        {
          "indexed": true,
          "internalType": "address",
          "name": "newOwner",
          "type": "address"
        }
      ],
      "name": "OwnershipTransferred",
      "type": "event"
    },
    {
      "anonymous": false,
      "inputs": [
        {
          "indexed": true,
          "internalType": "contract IERC20",
          "name": "payToken",
          "type": "address"
        },
        {
          "indexed": true,
          "internalType": "address",
          "name": "from",
          "type": "address"
        },
        {
          "indexed": true,
          "internalType": "address",
          "name": "to",
          "type": "address"
        },
        {
          "indexed": false,
          "internalType": "uint256",
          "name": "tokenId",
          "type": "uint256"
        },
        {
          "indexed": false,
          "internalType": "uint256",
          "name": "amount",
          "type": "uint256"
        }
      ],
      "name": "Payment",
      "type": "event"
    },
    {
      "anonymous": false,
      "inputs": [
        {
          "indexed": false,
          "internalType": "uint64",
          "name": "time",
          "type": "uint64"
        }
      ],
      "name": "SetClose",
      "type": "event"
    },
    {
      "anonymous": false,
      "inputs": [
        {
          "indexed": false,
          "internalType": "string",
          "name": "uri",
          "type": "string"
        }
      ],
      "name": "SetContractURI",
      "type": "event"
    },
    {
      "anonymous": false,
      "inputs": [
        {
          "indexed": false,
          "internalType": "uint64",
          "name": "time",
          "type": "uint64"
        }
      ],
      "name": "SetOpen",
      "type": "event"
    },
    {
      "anonymous": false,
      "inputs": [
        {
          "components": [
            {
              "internalType": "contract IERC20",
              "name": "payToken",
              "type": "address"
            },
            {
              "internalType": "uint256",
              "name": "price",
              "type": "uint256"
            },
            {
              "internalType": "uint64",
              "name": "open",
              "type": "uint64"
            },
            {
              "internalType": "uint64",
              "name": "close",
              "type": "uint64"
            },
            {
              "internalType": "string",
              "name": "uri",
              "type": "string"
            }
          ],
          "indexed": false,
          "internalType": "struct CollectionWrapper.Param",
          "name": "param",
          "type": "tuple"
        }
      ],
      "name": "SetParam",
      "type": "event"
    },
    {
      "anonymous": false,
      "inputs": [
        {
          "indexed": false,
          "internalType": "contract IERC20",
          "name": "payToken",
          "type": "address"
        }
      ],
      "name": "SetPayToken",
      "type": "event"
    },
    {
      "anonymous": false,
      "inputs": [
        {
          "indexed": false,
          "internalType": "uint256",
          "name": "price",
          "type": "uint256"
        }
      ],
      "name": "SetPrice",
      "type": "event"
    },
    {
      "anonymous": false,
      "inputs": [
        {
          "indexed": true,
          "internalType": "address",
          "name": "from",
          "type": "address"
        },
        {
          "indexed": true,
          "internalType": "address",
          "name": "to",
          "type": "address"
        },
        {
          "indexed": true,
          "internalType": "uint256",
          "name": "tokenId",
          "type": "uint256"
        }
      ],
      "name": "Transfer",
      "type": "event"
    },
    {
      "anonymous": false,
      "inputs": [
        {
          "indexed": true,
          "internalType": "contract IERC20",
          "name": "payToken",
          "type": "address"
        },
        {
          "indexed": true,
          "internalType": "address",
          "name": "to",
          "type": "address"
        },
        {
          "indexed": false,
          "internalType": "uint256",
          "name": "amount",
          "type": "uint256"
        }
      ],
      "name": "Withdrawal",
      "type": "event"
    },
    {
      "inputs": [
        {
          "internalType": "bytes32",
          "name": "root",
          "type": "bytes32"
        }
      ],
      "name": "addRoot",
      "outputs": [],
      "stateMutability": "nonpayable",
      "type": "function"
    },
    {
      "inputs": [
        {
          "internalType": "address",
          "name": "to",
          "type": "address"
        },
        {
          "internalType": "uint256",
          "name": "tokenId",
          "type": "uint256"
        }
      ],
      "name": "approve",
      "outputs": [],
      "stateMutability": "nonpayable",
      "type": "function"
    },
    {
      "inputs": [
        {
          "internalType": "address",
          "name": "owner",
          "type": "address"
        }
      ],
      "name": "balanceOf",
      "outputs": [
        {
          "internalType": "uint256",
          "name": "",
          "type": "uint256"
        }
      ],
      "stateMutability": "view",
      "type": "function"
    },
    {
      "inputs": [
        {
          "internalType": "uint256",
          "name": "tokenId",
          "type": "uint256"
        }
      ],
      "name": "burn",
      "outputs": [],
      "stateMutability": "nonpayable",
      "type": "function"
    },
    {
      "inputs": [
        {
          "internalType": "bytes32",
          "name": "root",
          "type": "bytes32"
        },
        {
          "internalType": "string",
          "name": "uri",
          "type": "string"
        },
        {
          "internalType": "address",
          "name": "creator",
          "type": "address"
        },
        {
          "internalType": "bytes32[]",
          "name": "proofs",
          "type": "bytes32[]"
        }
      ],
      "name": "claim",
      "outputs": [
        {
          "internalType": "uint256",
          "name": "tokenId",
          "type": "uint256"
        }
      ],
      "stateMutability": "nonpayable",
      "type": "function"
    },
    {
      "inputs": [
        {
          "internalType": "address",
          "name": "to",
          "type": "address"
        },
        {
          "internalType": "bytes32",
          "name": "root",
          "type": "bytes32"
        },
        {
          "internalType": "string",
          "name": "uri",
          "type": "string"
        },
        {
          "internalType": "address",
          "name": "creator",
          "type": "address"
        },
        {
          "internalType": "bytes32[]",
          "name": "proofs",
          "type": "bytes32[]"
        }
      ],
      "name": "claimAndMint",
      "outputs": [
        {
          "internalType": "uint256",
          "name": "value",
          "type": "uint256"
        }
      ],
      "stateMutability": "nonpayable",
      "type": "function"
    },
    {
      "inputs": [],
      "name": "close",
      "outputs": [
        {
          "internalType": "uint256",
          "name": "",
          "type": "uint256"
        }
      ],
      "stateMutability": "view",
      "type": "function"
    },
    {
      "inputs": [
        {
          "internalType": "uint256",
          "name": "tokenId",
          "type": "uint256"
        }
      ],
      "name": "getApproved",
      "outputs": [
        {
          "internalType": "address",
          "name": "",
          "type": "address"
        }
      ],
      "stateMutability": "view",
      "type": "function"
    },
    {
      "inputs": [
        {
          "internalType": "address",
          "name": "newOwner",
          "type": "address"
        },
        {
          "internalType": "string",
          "name": "name",
          "type": "string"
        },
        {
          "internalType": "string",
          "name": "symbol",
          "type": "string"
        },
        {
          "internalType": "bytes32",
          "name": "root",
          "type": "bytes32"
        },
        {
          "components": [
            {
              "internalType": "contract IERC20",
              "name": "payToken",
              "type": "address"
            },
            {
              "internalType": "uint256",
              "name": "price",
              "type": "uint256"
            },
            {
              "internalType": "uint64",
              "name": "open",
              "type": "uint64"
            },
            {
              "internalType": "uint64",
              "name": "close",
              "type": "uint64"
            },
            {
              "internalType": "string",
              "name": "uri",
              "type": "string"
            }
          ],
          "internalType": "struct CollectionWrapper.Param",
          "name": "param",
          "type": "tuple"
        }
      ],
      "name": "initialize",
      "outputs": [],
      "stateMutability": "nonpayable",
      "type": "function"
    },
    {
      "inputs": [
        {
          "internalType": "address",
          "name": "owner",
          "type": "address"
        },
        {
          "internalType": "address",
          "name": "operator",
          "type": "address"
        }
      ],
      "name": "isApprovedForAll",
      "outputs": [
        {
          "internalType": "bool",
          "name": "",
          "type": "bool"
        }
      ],
      "stateMutability": "view",
      "type": "function"
    },
    {
      "inputs": [
        {
          "internalType": "bytes32",
          "name": "key_",
          "type": "bytes32"
        }
      ],
      "name": "isClaimed",
      "outputs": [
        {
          "internalType": "bool",
          "name": "",
          "type": "bool"
        }
      ],
      "stateMutability": "view",
      "type": "function"
    },
    {
      "inputs": [],
      "name": "isClosed",
      "outputs": [
        {
          "internalType": "bool",
          "name": "",
          "type": "bool"
        }
      ],
      "stateMutability": "view",
      "type": "function"
    },
    {
      "inputs": [],
      "name": "isLimited",
      "outputs": [
        {
          "internalType": "bool",
          "name": "",
          "type": "bool"
        }
      ],
      "stateMutability": "view",
      "type": "function"
    },
    {
      "inputs": [
        {
          "internalType": "bytes32",
          "name": "key_",
          "type": "bytes32"
        }
      ],
      "name": "isMinted",
      "outputs": [
        {
          "internalType": "bool",
          "name": "",
          "type": "bool"
        }
      ],
      "stateMutability": "view",
      "type": "function"
    },
    {
      "inputs": [],
      "name": "isNeverClosed",
      "outputs": [
        {
          "internalType": "bool",
          "name": "",
          "type": "bool"
        }
      ],
      "stateMutability": "view",
      "type": "function"
    },
    {
      "inputs": [],
      "name": "isOpen",
      "outputs": [
        {
          "internalType": "bool",
          "name": "",
          "type": "bool"
        }
      ],
      "stateMutability": "view",
      "type": "function"
    },
    {
      "inputs": [
        {
          "internalType": "bytes32",
          "name": "root",
          "type": "bytes32"
        },
        {
          "internalType": "bytes32[]",
          "name": "proofs",
          "type": "bytes32[]"
        },
        {
          "internalType": "address",
          "name": "creator_",
          "type": "address"
        },
        {
          "internalType": "string",
          "name": "uri",
          "type": "string"
        }
      ],
      "name": "isValid",
      "outputs": [
        {
          "internalType": "bool",
          "name": "",
          "type": "bool"
        }
      ],
      "stateMutability": "view",
      "type": "function"
    },
    {
      "inputs": [
        {
          "internalType": "bytes32",
          "name": "root",
          "type": "bytes32"
        },
        {
          "internalType": "bytes32[]",
          "name": "proofs",
          "type": "bytes32[]"
        },
        {
          "internalType": "address",
          "name": "creator_",
          "type": "address"
        },
        {
          "internalType": "string",
          "name": "uri",
          "type": "string"
        }
      ],
      "name": "key",
      "outputs": [
        {
          "internalType": "bytes32",
          "name": "",
          "type": "bytes32"
        }
      ],
      "stateMutability": "pure",
      "type": "function"
    },
    {
      "inputs": [
        {
          "internalType": "address",
          "name": "to",
          "type": "address"
        },
        {
          "internalType": "uint256",
          "name": "tokenId",
          "type": "uint256"
        }
      ],
      "name": "mint",
      "outputs": [
        {
          "internalType": "uint256",
          "name": "value",
          "type": "uint256"
        }
      ],
      "stateMutability": "nonpayable",
      "type": "function"
    },
    {
      "inputs": [],
      "name": "name",
      "outputs": [
        {
          "internalType": "string",
          "name": "",
          "type": "string"
        }
      ],
      "stateMutability": "view",
      "type": "function"
    },
    {
      "inputs": [],
      "name": "open",
      "outputs": [
        {
          "internalType": "uint256",
          "name": "",
          "type": "uint256"
        }
      ],
      "stateMutability": "view",
      "type": "function"
    },
    {
      "inputs": [],
      "name": "owner",
      "outputs": [
        {
          "internalType": "address",
          "name": "",
          "type": "address"
        }
      ],
      "stateMutability": "view",
      "type": "function"
    },
    {
      "inputs": [
        {
          "internalType": "uint256",
          "name": "tokenId",
          "type": "uint256"
        }
      ],
      "name": "ownerOf",
      "outputs": [
        {
          "internalType": "address",
          "name": "",
          "type": "address"
        }
      ],
      "stateMutability": "view",
      "type": "function"
    },
    {
      "inputs": [],
      "name": "param",
      "outputs": [
        {
          "internalType": "contract IERC20",
          "name": "payToken",
          "type": "address"
        },
        {
          "internalType": "uint256",
          "name": "price",
          "type": "uint256"
        },
        {
          "internalType": "uint64",
          "name": "open",
          "type": "uint64"
        },
        {
          "internalType": "uint64",
          "name": "close",
          "type": "uint64"
        },
        {
          "internalType": "string",
          "name": "uri",
          "type": "string"
        }
      ],
      "stateMutability": "view",
      "type": "function"
    },
    {
      "inputs": [],
      "name": "payToken",
      "outputs": [
        {
          "internalType": "contract IERC20",
          "name": "",
          "type": "address"
        }
      ],
      "stateMutability": "view",
      "type": "function"
    },
    {
      "inputs": [],
      "name": "price",
      "outputs": [
        {
          "internalType": "uint256",
          "name": "",
          "type": "uint256"
        }
      ],
      "stateMutability": "view",
      "type": "function"
    },
    {
      "inputs": [],
      "name": "renounceOwnership",
      "outputs": [],
      "stateMutability": "nonpayable",
      "type": "function"
    },
    {
      "inputs": [
        {
          "internalType": "bytes32",
          "name": "root",
          "type": "bytes32"
        }
      ],
      "name": "rootExists",
      "outputs": [
        {
          "internalType": "bool",
          "name": "",
          "type": "bool"
        }
      ],
      "stateMutability": "view",
      "type": "function"
    },
    {
      "inputs": [
        {
          "internalType": "address",
          "name": "from",
          "type": "address"
        },
        {
          "internalType": "address",
          "name": "to",
          "type": "address"
        },
        {
          "internalType": "uint256",
          "name": "tokenId",
          "type": "uint256"
        }
      ],
      "name": "safeTransferFrom",
      "outputs": [],
      "stateMutability": "nonpayable",
      "type": "function"
    },
    {
      "inputs": [
        {
          "internalType": "address",
          "name": "from",
          "type": "address"
        },
        {
          "internalType": "address",
          "name": "to",
          "type": "address"
        },
        {
          "internalType": "uint256",
          "name": "tokenId",
          "type": "uint256"
        },
        {
          "internalType": "bytes",
          "name": "_data",
          "type": "bytes"
        }
      ],
      "name": "safeTransferFrom",
      "outputs": [],
      "stateMutability": "nonpayable",
      "type": "function"
    },
    {
      "inputs": [
        {
          "internalType": "address",
          "name": "operator",
          "type": "address"
        },
        {
          "internalType": "bool",
          "name": "approved",
          "type": "bool"
        }
      ],
      "name": "setApprovalForAll",
      "outputs": [],
      "stateMutability": "nonpayable",
      "type": "function"
    },
    {
      "inputs": [
        {
          "internalType": "uint64",
          "name": "time",
          "type": "uint64"
        }
      ],
      "name": "setClose",
      "outputs": [],
      "stateMutability": "nonpayable",
      "type": "function"
    },
    {
      "inputs": [
        {
          "internalType": "string",
          "name": "contractURI_",
          "type": "string"
        }
      ],
      "name": "setContractURI",
      "outputs": [],
      "stateMutability": "nonpayable",
      "type": "function"
    },
    {
      "inputs": [
        {
          "internalType": "uint64",
          "name": "time",
          "type": "uint64"
        }
      ],
      "name": "setOpen",
      "outputs": [],
      "stateMutability": "nonpayable",
      "type": "function"
    },
    {
      "inputs": [
        {
          "components": [
            {
              "internalType": "contract IERC20",
              "name": "payToken",
              "type": "address"
            },
            {
              "internalType": "uint256",
              "name": "price",
              "type": "uint256"
            },
            {
              "internalType": "uint64",
              "name": "open",
              "type": "uint64"
            },
            {
              "internalType": "uint64",
              "name": "close",
              "type": "uint64"
            },
            {
              "internalType": "string",
              "name": "uri",
              "type": "string"
            }
          ],
          "internalType": "struct CollectionWrapper.Param",
          "name": "_param",
          "type": "tuple"
        }
      ],
      "name": "setParam",
      "outputs": [],
      "stateMutability": "nonpayable",
      "type": "function"
    },
    {
      "inputs": [
        {
          "internalType": "contract IERC20",
          "name": "payToken_",
          "type": "address"
        }
      ],
      "name": "setPayToken",
      "outputs": [],
      "stateMutability": "nonpayable",
      "type": "function"
    },
    {
      "inputs": [
        {
          "internalType": "uint256",
          "name": "price_",
          "type": "uint256"
        }
      ],
      "name": "setPrice",
      "outputs": [],
      "stateMutability": "nonpayable",
      "type": "function"
    },
    {
      "inputs": [
        {
          "internalType": "bytes4",
          "name": "interfaceId",
          "type": "bytes4"
        }
      ],
      "name": "supportsInterface",
      "outputs": [
        {
          "internalType": "bool",
          "name": "",
          "type": "bool"
        }
      ],
      "stateMutability": "view",
      "type": "function"
    },
    {
      "inputs": [],
      "name": "symbol",
      "outputs": [
        {
          "internalType": "string",
          "name": "",
          "type": "string"
        }
      ],
      "stateMutability": "view",
      "type": "function"
    },
    {
      "inputs": [],
      "name": "timestamp",
      "outputs": [
        {
          "internalType": "uint256",
          "name": "",
          "type": "uint256"
        }
      ],
      "stateMutability": "view",
      "type": "function"
    },
    {
      "inputs": [
        {
          "internalType": "uint256",
          "name": "index",
          "type": "uint256"
        }
      ],
      "name": "tokenByIndex",
      "outputs": [
        {
          "internalType": "uint256",
          "name": "",
          "type": "uint256"
        }
      ],
      "stateMutability": "view",
      "type": "function"
    },
    {
      "inputs": [
        {
          "internalType": "bytes32",
          "name": "",
          "type": "bytes32"
        }
      ],
      "name": "tokenIds",
      "outputs": [
        {
          "internalType": "uint256",
          "name": "",
          "type": "uint256"
        }
      ],
      "stateMutability": "view",
      "type": "function"
    },
    {
      "inputs": [
        {
          "internalType": "address",
          "name": "owner",
          "type": "address"
        },
        {
          "internalType": "uint256",
          "name": "index",
          "type": "uint256"
        }
      ],
      "name": "tokenOfOwnerByIndex",
      "outputs": [
        {
          "internalType": "uint256",
          "name": "",
          "type": "uint256"
        }
      ],
      "stateMutability": "view",
      "type": "function"
    },
    {
      "inputs": [
        {
          "internalType": "uint256",
          "name": "tokenId",
          "type": "uint256"
        }
      ],
      "name": "tokenURI",
      "outputs": [
        {
          "internalType": "string",
          "name": "",
          "type": "string"
        }
      ],
      "stateMutability": "view",
      "type": "function"
    },
    {
      "inputs": [
        {
          "internalType": "uint256",
          "name": "",
          "type": "uint256"
        }
      ],
      "name": "tokens",
      "outputs": [
        {
          "internalType": "address",
          "name": "creator",
          "type": "address"
        },
        {
          "internalType": "string",
          "name": "uri",
          "type": "string"
        },
        {
          "internalType": "uint8",
          "name": "status",
          "type": "uint8"
        }
      ],
      "stateMutability": "view",
      "type": "function"
    },
    {
      "inputs": [],
      "name": "totalSupply",
      "outputs": [
        {
          "internalType": "uint256",
          "name": "",
          "type": "uint256"
        }
      ],
      "stateMutability": "view",
      "type": "function"
    },
    {
      "inputs": [
        {
          "internalType": "address",
          "name": "from",
          "type": "address"
        },
        {
          "internalType": "address",
          "name": "to",
          "type": "address"
        },
        {
          "internalType": "uint256",
          "name": "tokenId",
          "type": "uint256"
        }
      ],
      "name": "transferFrom",
      "outputs": [],
      "stateMutability": "nonpayable",
      "type": "function"
    },
    {
      "inputs": [
        {
          "internalType": "address",
          "name": "newOwner",
          "type": "address"
        }
      ],
      "name": "transferOwnership",
      "outputs": [],
      "stateMutability": "nonpayable",
      "type": "function"
    },
    {
      "inputs": [
        {
          "internalType": "uint256",
          "name": "amount",
          "type": "uint256"
        }
      ],
      "name": "valueOf",
      "outputs": [
        {
          "internalType": "uint256",
          "name": "",
          "type": "uint256"
        }
      ],
      "stateMutability": "view",
      "type": "function"
    },
    {
      "inputs": [
        {
          "internalType": "contract IERC20",
          "name": "payToken",
          "type": "address"
        },
        {
          "internalType": "address",
          "name": "to",
          "type": "address"
        },
        {
          "internalType": "uint256",
          "name": "amount",
          "type": "uint256"
        }
      ],
      "name": "withdraw",
      "outputs": [],
      "stateMutability": "nonpayable",
      "type": "function"
    }
  ],
  "transactionHash": "0x4372635b4564eb590ade35e446fde94709de20e5792ff040011369b6be256923",
  "args": [],
  "bytecode": "0x608060405260fb805463ffffffff191663e8a3d4851790553480156200002457600080fd5b50600054610100900460ff16620000425760005460ff16156200004c565b6200004c620000fa565b620000b45760405162461bcd60e51b815260206004820152602e60248201527f496e697469616c697a61626c653a20636f6e747261637420697320616c72656160448201526d191e481a5b9a5d1a585b1a5e995960921b606482015260840160405180910390fd5b600054610100900460ff16158015620000e0576000805460ff1961ff0019909116610100171660011790555b8015620000f3576000805461ff00191690555b506200011e565b600062000112306200011860201b6200159f1760201c565b15905090565b3b151590565b613928806200012e6000396000f3fe608060405234801561001057600080fd5b50600436106102d65760003560e01c80638d4e237811610182578063b80777ea116100e9578063d59e6461116100a2578063e9426b571161007c578063e9426b57146106b8578063e985e9c5146106cb578063f2fde38b14610707578063fcfff16f1461071a576102d6565b8063d59e64611461068a578063d9caed121461069d578063db5671fb146106b0576102d6565b8063b80777ea1461060c578063b88d4fde14610612578063b89c395214610625578063c2b6b58c1461065c578063c87b56dd14610664578063cadf338f14610677576102d6565b80639e4c0be31161013b5780639e4c0be31461057f578063a035b1fe146105b7578063a1b17e82146105c0578063a22cb465146105d3578063a2520ae1146105e6578063aea46b4c146105f9576102d6565b80638d4e23781461050b5780638da5cb5b1461052657806391b7f5ed1461053f578063938e3d7b1461055257806395d89b411461056557806396336b301461056d576102d6565b806342842e0e116102415780636352211e116101fa578063715018a6116101d4578063715018a6146104c45780637ad908d9146104cc578063883d87b1146104df5780638d1b223f146104f8576102d6565b80636352211e1461048b5780636f96e99c1461049e57806370a08231146104b1576102d6565b806342842e0e1461040e57806342966c681461042157806343d726d61461043457806347535d7b1461044e5780634f64b2be146104565780634f6ccce714610478576102d6565b806323b872dd1161029357806323b872dd1461038e5780632f745c59146103a15780633631ee56146103b457806336622b6b146103c75780633919efb7146103e857806340c10f19146103fb576102d6565b806301ffc9a7146102db5780630524b18f1461030357806306fdde0314610327578063081812fc1461033c578063095ea7b31461036757806318160ddd1461037c575b600080fd5b6102ee6102e93660046132b4565b61072c565b60405190151581526020015b60405180910390f35b6102ee6103113660046131b8565b6000908152610133602052604090205460ff1690565b61032f61075c565b6040516102fa9190613506565b61034f61034a3660046131b8565b6107ef565b6040516001600160a01b0390911681526020016102fa565b61037a610375366004613171565b610889565b005b6099545b6040519081526020016102fa565b61037a61039c366004612f64565b61099f565b6103806103af366004613171565b6109d1565b6103806103c236600461304d565b610a67565b6103806103d53660046131b8565b6101326020526000908152604090205481565b61037a6103f6366004613350565b610a8d565b610380610409366004613171565b610b2f565b61037a61041c366004612f64565b610b42565b61037a61042f3660046131b8565b610b5d565b61038061012f54600160401b90046001600160401b031690565b6102ee610bd4565b6104696104643660046131b8565b610c3f565b6040516102fa9392919061348d565b6103806104863660046131b8565b610cf8565b61034f6104993660046131b8565b610d99565b61037a6104ac366004612f10565b610e10565b6103806104bf366004612f10565b610e4b565b61037a610ed2565b6102ee6104da3660046131d0565b610f10565b6104e7610f79565b6040516102fa9594939291906134c4565b61037a610506366004613350565b61103d565b6102ee61012f54600160401b90046001600160401b03161590565b61034f60fb54600160201b90046001600160a01b031690565b61037a61054d3660046131b8565b6110ad565b61037a6105603660046132ec565b6110e8565b61032f611123565b61012d546001600160a01b031661034f565b6102ee61058d3660046131b8565b600090815261013260209081526040808320548352610131909152902060029081015460ff161490565b61012e54610380565b61037a6105ce3660046130de565b611132565b61037a6105e1366004613020565b61121e565b6103806105f43660046131d0565b61122d565b61037a61060736600461331e565b611267565b42610380565b61037a610620366004612fa4565b6112a2565b6102ee6106333660046131b8565b60009081526101326020908152604080832054835261013190915290206002015460ff16151590565b6102ee6112da565b61032f6106723660046131b8565b61131e565b6103806106853660046131b8565b6113ab565b61037a6106983660046131b8565b6113c1565b61037a6106ab366004612f64565b6113fc565b6102ee611494565b6103806106c6366004613242565b6114e8565b6102ee6106d9366004612f2c565b6001600160a01b039182166000908152606a6020908152604080832093909416825291909152205460ff1690565b61037a610715366004612f10565b6114ff565b61012f546001600160401b0316610380565b6000610737826115a5565b80610754575060fb5460e01b6001600160e01b0319908116908316145b90505b919050565b60606065805461076b90613837565b80601f016020809104026020016040519081016040528092919081815260200182805461079790613837565b80156107e45780601f106107b9576101008083540402835291602001916107e4565b820191906000526020600020905b8154815290600101906020018083116107c757829003601f168201915b505050505090505b90565b6000818152606760205260408120546001600160a01b031661086d5760405162461bcd60e51b815260206004820152602c60248201527f4552433732313a20617070726f76656420717565727920666f72206e6f6e657860448201526b34b9ba32b73a103a37b5b2b760a11b60648201526084015b60405180910390fd5b506000908152606960205260409020546001600160a01b031690565b600061089482610d99565b9050806001600160a01b0316836001600160a01b031614156109025760405162461bcd60e51b815260206004820152602160248201527f4552433732313a20617070726f76616c20746f2063757272656e74206f776e656044820152603960f91b6064820152608401610864565b336001600160a01b038216148061091e575061091e81336106d9565b6109905760405162461bcd60e51b815260206004820152603860248201527f4552433732313a20617070726f76652063616c6c6572206973206e6f74206f7760448201527f6e6572206e6f7220617070726f76656420666f7220616c6c00000000000000006064820152608401610864565b61099a83836115ca565b505050565b6109aa335b82611638565b6109c65760405162461bcd60e51b8152600401610864906135d5565b61099a83838361172b565b60006109dc83610e4b565b8210610a3e5760405162461bcd60e51b815260206004820152602b60248201527f455243373231456e756d657261626c653a206f776e657220696e646578206f7560448201526a74206f6620626f756e647360a81b6064820152608401610864565b506001600160a01b03919091166000908152609760209081526040808320938352929052205490565b600080610a76868686866118d6565b9050610a828782611b40565b979650505050505050565b60fb546001600160a01b03600160201b909104163314610abf5760405162461bcd60e51b8152600401610864906135a0565b6000610adb61012f54600160401b90046001600160401b031690565b1115610b2357610afb61012f54600160401b90046001600160401b031690565b816001600160401b03161115610b235760405162461bcd60e51b81526004016108649061356b565b610b2c81611c5d565b50565b6000610b3b8383611b40565b9392505050565b61099a838383604051806020016040528060008152506112a2565b610b66336109a4565b610bcb5760405162461bcd60e51b815260206004820152603060248201527f4552433732314275726e61626c653a2063616c6c6572206973206e6f74206f7760448201526f1b995c881b9bdc88185c1c1c9bdd995960821b6064820152608401610864565b610b2c81611d04565b6000610bf161012f54600160401b90046001600160401b03161590565b15610c0b575061012f546001600160401b031642116107ec565b61012f546001600160401b03164210801590610c3a575061012f54600160401b90046001600160401b03164211155b905090565b61013160205260009081526040902080546001820180546001600160a01b039092169291610c6c90613837565b80601f0160208091040260200160405190810160405280929190818152602001828054610c9890613837565b8015610ce55780601f10610cba57610100808354040283529160200191610ce5565b820191906000526020600020905b815481529060010190602001808311610cc857829003601f168201915b5050506002909301549192505060ff1683565b6000610d0360995490565b8210610d665760405162461bcd60e51b815260206004820152602c60248201527f455243373231456e756d657261626c653a20676c6f62616c20696e646578206f60448201526b7574206f6620626f756e647360a01b6064820152608401610864565b60998281548110610d8757634e487b7160e01b600052603260045260246000fd5b90600052602060002001549050919050565b6000818152606760205260408120546001600160a01b0316806107545760405162461bcd60e51b815260206004820152602960248201527f4552433732313a206f776e657220717565727920666f72206e6f6e657869737460448201526832b73a103a37b5b2b760b91b6064820152608401610864565b60fb546001600160a01b03600160201b909104163314610e425760405162461bcd60e51b8152600401610864906135a0565b610b2c81611dab565b60006001600160a01b038216610eb65760405162461bcd60e51b815260206004820152602a60248201527f4552433732313a2062616c616e636520717565727920666f7220746865207a65604482015269726f206164647265737360b01b6064820152608401610864565b506001600160a01b031660009081526068602052604090205490565b60fb546001600160a01b03600160201b909104163314610f045760405162461bcd60e51b8152600401610864906135a0565b610f0e6000611dfa565b565b60008481526101336020526040812054859060ff16610f415760405162461bcd60e51b815260040161086490613671565b60008484604051602001610f56929190613396565b604051602081830303815290604052805190602001209050610a82868883611e59565b61012d805461012e5461012f5461013080546001600160a01b039094169492936001600160401b0380841694600160401b90940416929190610fba90613837565b80601f0160208091040260200160405190810160405280929190818152602001828054610fe690613837565b80156110335780601f1061100857610100808354040283529160200191611033565b820191906000526020600020905b81548152906001019060200180831161101657829003601f168201915b5050505050905085565b60fb546001600160a01b03600160201b90910416331461106f5760405162461bcd60e51b8152600401610864906135a0565b61012f546001600160401b0316816001600160401b031610156110a45760405162461bcd60e51b81526004016108649061356b565b610b2c81611e6f565b60fb546001600160a01b03600160201b9091041633146110df5760405162461bcd60e51b8152600401610864906135a0565b610b2c81611efb565b60fb546001600160a01b03600160201b90910416331461111a5760405162461bcd60e51b8152600401610864906135a0565b610b2c81611f31565b60606066805461076b90613837565b600054610100900460ff1661114d5760005460ff1615611151565b303b155b6111b45760405162461bcd60e51b815260206004820152602e60248201527f496e697469616c697a61626c653a20636f6e747261637420697320616c72656160448201526d191e481a5b9a5d1a585b1a5e995960921b6064820152608401610864565b600054610100900460ff161580156111df576000805460ff1961ff0019909116610100171660011790555b6111e98585611f75565b6111f286611dfa565b6111fb83611fb6565b61120482612069565b8015611216576000805461ff00191690555b505050505050565b61122933838361212b565b5050565b60008484848460405160200161124694939291906133ce565b6040516020818303038152906040528051906020012090505b949350505050565b60fb546001600160a01b03600160201b9091041633146112995760405162461bcd60e51b8152600401610864906135a0565b610b2c81612069565b6112ac3383611638565b6112c85760405162461bcd60e51b8152600401610864906135d5565b6112d4848484846121f2565b50505050565b60006112f761012f54600160401b90046001600160401b03161590565b15611304575060006107ec565b5061012f54600160401b90046001600160401b0316421190565b6000818152606760205260409020546060906001600160a01b03166113a25760405162461bcd60e51b815260206004820152603460248201527f4552433732314d756c7469436f6c6c656374696f6e5570677261646561626c656044820152731d103737b732bc34b9ba32b73a103a37b5b2b71760611b6064820152608401610864565b61075482612225565b6000610754826113bb61012e5490565b906122cb565b60fb546001600160a01b03600160201b9091041633146113f35760405162461bcd60e51b8152600401610864906135a0565b610b2c81611fb6565b60fb546001600160a01b03600160201b90910416331461142e5760405162461bcd60e51b8152600401610864906135a0565b6114426001600160a01b03841683836122d7565b816001600160a01b0316836001600160a01b03167f2717ead6b9200dd235aad468c9809ea400fe33ac69b5bfaa6d3e90fc922b63988360405161148791815260200190565b60405180910390a3505050565b61012f546000906001600160401b0316158015906114c4575061012f54600160401b90046001600160401b031615155b8015610c3a57505061012f546001600160401b03808216600160401b909204161190565b60006114f6858585856118d6565b95945050505050565b60fb546001600160a01b03600160201b9091041633146115315760405162461bcd60e51b8152600401610864906135a0565b6001600160a01b0381166115965760405162461bcd60e51b815260206004820152602660248201527f4f776e61626c653a206e6577206f776e657220697320746865207a65726f206160448201526564647265737360d01b6064820152608401610864565b610b2c81611dfa565b3b151590565b60006001600160e01b0319821663780e9d6360e01b148061075457506107548261233a565b600081815260696020526040902080546001600160a01b0319166001600160a01b03841690811790915581906115ff82610d99565b6001600160a01b03167f8c5be1e5ebec7d5bd14f71427d1e84f3dd0314c0f7b2291e5b200ac8c7c3b92560405160405180910390a45050565b6000818152606760205260408120546001600160a01b03166116b15760405162461bcd60e51b815260206004820152602c60248201527f4552433732313a206f70657261746f7220717565727920666f72206e6f6e657860448201526b34b9ba32b73a103a37b5b2b760a11b6064820152608401610864565b60006116bc83610d99565b9050806001600160a01b0316846001600160a01b031614806116f75750836001600160a01b03166116ec846107ef565b6001600160a01b0316145b8061125f57506001600160a01b038082166000908152606a602090815260408083209388168352929052205460ff1661125f565b826001600160a01b031661173e82610d99565b6001600160a01b0316146117a65760405162461bcd60e51b815260206004820152602960248201527f4552433732313a207472616e73666572206f6620746f6b656e2074686174206960448201526839903737ba1037bbb760b91b6064820152608401610864565b6001600160a01b0382166118085760405162461bcd60e51b8152602060048201526024808201527f4552433732313a207472616e7366657220746f20746865207a65726f206164646044820152637265737360e01b6064820152608401610864565b61181383838361238a565b61181e6000826115ca565b6001600160a01b03831660009081526068602052604081208054600192906118479084906137f4565b90915550506001600160a01b03821660009081526068602052604081208054600192906118759084906137bd565b909155505060008181526067602052604080822080546001600160a01b0319166001600160a01b0386811691821790925591518493918716917fddf252ad1be2c89b69c2b068fc378daa952ba7f163c4a11628f55a4df523b3ef91a4505050565b60008481526101336020526040812054859060ff166119075760405162461bcd60e51b815260040161086490613671565b6001600160a01b0384166119705760405162461bcd60e51b815260206004820152602a60248201527f4552433732314d756c7469706c65426f78577261707065723a20696e76616c69604482015269321031b932b0ba37b91760b11b6064820152608401610864565b61197c86848688610f10565b6119da5760405162461bcd60e51b815260206004820152602960248201527f4552433732314d756c7469706c65426f78577261707065723a20696e76616c696044820152683210383937b7b3399760b91b6064820152608401610864565b60006119e88785878961122d565b60008181526101326020908152604080832054835261013190915290206002015490915060ff1615611a705760405162461bcd60e51b815260206004820152602b60248201527f4552433732314d756c7469706c65426f78577261707065723a20746f6b656e2060448201526a34b99031b630b4b6b2b21760a91b6064820152608401610864565b61013460008154611a8090613872565b91829055506000818152610131602090815260409091208851929550611aae92600190910191890190612ce2565b5060008381526101316020908152604080832080546001600160a01b0319166001600160a01b038a16178155600201805460ff1916600117905583835261013290915290819020849055517ffd54a311e7a6da59d80086a48a53ac175dd59d4d8e899f36ebc0edacf185807090611b2e9085908a9088908a908c90613716565b60405180910390a15050949350505050565b6000611b4a610bd4565b611bbc5760405162461bcd60e51b815260206004820152603860248201527f4552433732314d756c7469436f6c6c656374696f6e5570677261646561626c6560448201527f3a20636f6c6c656374696f6e206973206e6f74206f70656e00000000000000006064820152608401610864565b611bc660016113ab565b90506000611bdd61012d546001600160a01b031690565b90508115611bfa57611bfa6001600160a01b038216333085612395565b611c0484846123cd565b611c0e84846124b2565b6040805184815260208101849052309133916001600160a01b038516917f554e97a00857c86ee97815cd8d3bf2ae0e5e86c8661747ac45f913bd78be9a2d910160405180910390a45092915050565b61012f54600160401b90046001600160401b031615611cad5761012f546001600160401b03600160401b90910481169082161115611cad5760405162461bcd60e51b81526004016108649061356b565b61012f805467ffffffffffffffff19166001600160401b0383169081179091556040519081527f17cabcab3398a138d9dfd3bc53e08963b12b9b4139ed7f78b29fca864e3c4aa0906020015b60405180910390a150565b6000611d0f82610d99565b9050611d1d8160008461238a565b611d286000836115ca565b6001600160a01b0381166000908152606860205260408120805460019290611d519084906137f4565b909155505060008281526067602052604080822080546001600160a01b0319169055518391906001600160a01b038416907fddf252ad1be2c89b69c2b068fc378daa952ba7f163c4a11628f55a4df523b3ef908390a45050565b61012d80546001600160a01b0319166001600160a01b0383169081179091556040519081527f50db60c1670b68cecbe174099eeb6f62f93782afbd762b4c2a54f54bc50f07ef90602001611cf9565b60fb80546001600160a01b03838116600160201b818102640100000000600160c01b031985161790945560405193909204169182907f8be0079c531659141344cd1fd0a4f28419497f9722a3daafe3b4186f6b6457e090600090a35050565b600082611e668584612600565b14949350505050565b61012f546001600160401b039081169082161015611e9f5760405162461bcd60e51b81526004016108649061356b565b61012f805467ffffffffffffffff60401b1916600160401b6001600160401b038416908102919091179091556040519081527fe1afb1f221a894b009c34ab0d951ffb009d7c559710a6f02db3af9e22b56168790602001611cf9565b61012e8190556040518181527f4f5539c0409dfc4cb06f64cbd31237e1fbfe443f531584bf4dd77ec7fc5ba7b190602001611cf9565b8051611f4590610130906020840190612ce2565b507f5ca9f750836b0b7efdace104f07b5c9f0df0650c0fd24f5163e99044ae36ea5281604051611cf99190613506565b600054610100900460ff16611f9c5760405162461bcd60e51b815260040161086490613626565b611fa46126ba565b611fac6126ba565b61122982826126e1565b6000818152610133602052604090205460ff16156120255760405162461bcd60e51b815260206004820152602660248201527f4552433732314d756c7469706c65426f78577261707065723a20726f6f7420656044820152653c34b9ba399760d11b6064820152608401610864565b60008181526101336020526040808220805460ff191660011790555182917fd80c681b4765aa72d18c1ff39f781ef9d9a6eda4360ae6d0316e7f43d3df653691a250565b805161012d80546001600160a01b0319166001600160a01b0390921691909117815560208083015161012e55604083015161012f8054606086015167ffffffffffffffff199091166001600160401b039384161767ffffffffffffffff60401b1916600160401b9390911692909202919091179055608083015180518493926120f89261013092910190612ce2565b509050507fc83c766960a652cd1911e466e5829a576655224bcabac01d54cb0648dca3eb9881604051611cf991906136bc565b816001600160a01b0316836001600160a01b0316141561218d5760405162461bcd60e51b815260206004820152601960248201527f4552433732313a20617070726f766520746f2063616c6c6572000000000000006044820152606401610864565b6001600160a01b038381166000818152606a6020908152604080832094871680845294825291829020805460ff191686151590811790915591519182527f17307eab39ab6107e8899845ad3d59bd9653f200f220920489ca2b5937696c319101611487565b6121fd84848461172b565b6122098484848461272f565b6112d45760405162461bcd60e51b815260040161086490613519565b60008181526101316020526040902060010180546060919061224690613837565b80601f016020809104026020016040519081016040528092919081815260200182805461227290613837565b80156122bf5780601f10612294576101008083540402835291602001916122bf565b820191906000526020600020905b8154815290600101906020018083116122a257829003601f168201915b50505050509050919050565b6000610b3b82846137d5565b6040516001600160a01b03831660248201526044810182905261099a90849063a9059cbb60e01b906064015b60408051601f198184030181529190526020810180516001600160e01b03166001600160e01b031990931692909217909152612839565b60006001600160e01b031982166380ac58cd60e01b148061236b57506001600160e01b03198216635b5e139f60e01b145b8061075457506301ffc9a760e01b6001600160e01b0319831614610754565b61099a83838361290b565b6040516001600160a01b03808516602483015283166044820152606481018290526112d49085906323b872dd60e01b90608401612303565b6000818152610131602052604090206002015460ff1660011461244a5760405162461bcd60e51b815260206004820152602f60248201527f4552433732314d756c7469706c65426f78577261707065723a20696e76616c6960448201526e32103a37b5b2b71039ba30ba3ab99760891b6064820152608401610864565b60008181526101316020526040908190206002908101805460ff19169091179055516001600160a01b038316907fdcdea898caf5576419f89caf69301592a4758349a0bd62300b58849213420a72906124a69084815260200190565b60405180910390a25050565b6001600160a01b0382166125085760405162461bcd60e51b815260206004820181905260248201527f4552433732313a206d696e7420746f20746865207a65726f20616464726573736044820152606401610864565b6000818152606760205260409020546001600160a01b03161561256d5760405162461bcd60e51b815260206004820152601c60248201527f4552433732313a20746f6b656e20616c7265616479206d696e746564000000006044820152606401610864565b6125796000838361238a565b6001600160a01b03821660009081526068602052604081208054600192906125a29084906137bd565b909155505060008181526067602052604080822080546001600160a01b0319166001600160a01b03861690811790915590518392907fddf252ad1be2c89b69c2b068fc378daa952ba7f163c4a11628f55a4df523b3ef908290a45050565b600081815b84518110156126b257600085828151811061263057634e487b7160e01b600052603260045260246000fd5b6020026020010151905080831161267257604080516020810185905290810182905260600160405160208183030381529060405280519060200120925061269f565b60408051602081018390529081018490526060016040516020818303038152906040528051906020012092505b50806126aa81613872565b915050612605565b509392505050565b600054610100900460ff16610f0e5760405162461bcd60e51b815260040161086490613626565b600054610100900460ff166127085760405162461bcd60e51b815260040161086490613626565b815161271b906065906020850190612ce2565b50805161099a906066906020840190612ce2565b60006001600160a01b0384163b1561283157604051630a85bd0160e11b81526001600160a01b0385169063150b7a0290612773903390899088908890600401613450565b602060405180830381600087803b15801561278d57600080fd5b505af19250505080156127bd575060408051601f3d908101601f191682019092526127ba918101906132d0565b60015b612817573d8080156127eb576040519150601f19603f3d011682016040523d82523d6000602084013e6127f0565b606091505b50805161280f5760405162461bcd60e51b815260040161086490613519565b805181602001fd5b6001600160e01b031916630a85bd0160e11b14905061125f565b50600161125f565b600061288e826040518060400160405280602081526020017f5361666545524332303a206c6f772d6c6576656c2063616c6c206661696c6564815250856001600160a01b03166129c89092919063ffffffff16565b80519091501561099a57808060200190518101906128ac919061319c565b61099a5760405162461bcd60e51b815260206004820152602a60248201527f5361666545524332303a204552433230206f7065726174696f6e20646964206e6044820152691bdd081cdd58d8d9595960b21b6064820152608401610864565b6001600160a01b0383166129665761296181609980546000838152609a60205260408120829055600182018355919091527f72a152ddfb8e864297c917af52ea6c1c68aead0fee1a62673fcc7e0c94979d000155565b612989565b816001600160a01b0316836001600160a01b0316146129895761298983826129d7565b6001600160a01b0382166129a5576129a081612a74565b61099a565b826001600160a01b0316826001600160a01b03161461099a5761099a8282612b4d565b606061125f8484600085612b91565b600060016129e484610e4b565b6129ee91906137f4565b600083815260986020526040902054909150808214612a41576001600160a01b03841660009081526097602090815260408083208584528252808320548484528184208190558352609890915290208190555b5060009182526098602090815260408084208490556001600160a01b039094168352609781528383209183525290812055565b609954600090612a86906001906137f4565b6000838152609a602052604081205460998054939450909284908110612abc57634e487b7160e01b600052603260045260246000fd5b906000526020600020015490508060998381548110612aeb57634e487b7160e01b600052603260045260246000fd5b6000918252602080832090910192909255828152609a90915260408082208490558582528120556099805480612b3157634e487b7160e01b600052603160045260246000fd5b6001900381819060005260206000200160009055905550505050565b6000612b5883610e4b565b6001600160a01b039093166000908152609760209081526040808320868452825280832085905593825260989052919091209190915550565b606082471015612bf25760405162461bcd60e51b815260206004820152602660248201527f416464726573733a20696e73756666696369656e742062616c616e636520666f6044820152651c8818d85b1b60d21b6064820152608401610864565b843b612c405760405162461bcd60e51b815260206004820152601d60248201527f416464726573733a2063616c6c20746f206e6f6e2d636f6e74726163740000006044820152606401610864565b600080866001600160a01b03168587604051612c5c9190613434565b60006040518083038185875af1925050503d8060008114612c99576040519150601f19603f3d011682016040523d82523d6000602084013e612c9e565b606091505b5091509150610a8282828660608315612cb8575081610b3b565b825115612cc85782518084602001fd5b8160405162461bcd60e51b81526004016108649190613506565b828054612cee90613837565b90600052602060002090601f016020900481019282612d105760008555612d56565b82601f10612d2957805160ff1916838001178555612d56565b82800160010185558215612d56579182015b82811115612d56578251825591602001919060010190612d3b565b50612d62929150612d66565b5090565b5b80821115612d625760008155600101612d67565b60006001600160401b03831115612d9457612d946138a3565b612da7601f8401601f191660200161378d565b9050828152838383011115612dbb57600080fd5b828260208301376000602084830101529392505050565b600082601f830112612de2578081fd5b813560206001600160401b03821115612dfd57612dfd6138a3565b808202612e0b82820161378d565b838152828101908684018388018501891015612e25578687fd5b8693505b85841015612e47578035835260019390930192918401918401612e29565b50979650505050505050565b600082601f830112612e63578081fd5b610b3b83833560208501612d7b565b600060a08284031215612e83578081fd5b612e8d60a061378d565b90508135612e9a816138b9565b815260208281013590820152612eb260408301612ef9565b6040820152612ec360608301612ef9565b606082015260808201356001600160401b03811115612ee157600080fd5b612eed84828501612e53565b60808301525092915050565b80356001600160401b038116811461075757600080fd5b600060208284031215612f21578081fd5b8135610b3b816138b9565b60008060408385031215612f3e578081fd5b8235612f49816138b9565b91506020830135612f59816138b9565b809150509250929050565b600080600060608486031215612f78578081fd5b8335612f83816138b9565b92506020840135612f93816138b9565b929592945050506040919091013590565b60008060008060808587031215612fb9578081fd5b8435612fc4816138b9565b93506020850135612fd4816138b9565b92506040850135915060608501356001600160401b03811115612ff5578182fd5b8501601f81018713613005578182fd5b61301487823560208401612d7b565b91505092959194509250565b60008060408385031215613032578182fd5b823561303d816138b9565b91506020830135612f59816138ce565b600080600080600060a08688031215613064578081fd5b853561306f816138b9565b94506020860135935060408601356001600160401b0380821115613091578283fd5b61309d89838a01612e53565b9450606088013591506130af826138b9565b909250608087013590808211156130c4578283fd5b506130d188828901612dd2565b9150509295509295909350565b600080600080600060a086880312156130f5578283fd5b8535613100816138b9565b945060208601356001600160401b038082111561311b578485fd5b61312789838a01612e53565b9550604088013591508082111561313c578485fd5b61314889838a01612e53565b9450606088013593506080880135915080821115613164578283fd5b506130d188828901612e72565b60008060408385031215613183578182fd5b823561318e816138b9565b946020939093013593505050565b6000602082840312156131ad578081fd5b8151610b3b816138ce565b6000602082840312156131c9578081fd5b5035919050565b600080600080608085870312156131e5578182fd5b8435935060208501356001600160401b0380821115613202578384fd5b61320e88838901612dd2565b945060408701359150613220826138b9565b90925060608601359080821115613235578283fd5b5061301487828801612e53565b60008060008060808587031215613257578182fd5b8435935060208501356001600160401b0380821115613274578384fd5b61328088838901612e53565b945060408701359150613292826138b9565b909250606086013590808211156132a7578283fd5b5061301487828801612dd2565b6000602082840312156132c5578081fd5b8135610b3b816138dc565b6000602082840312156132e1578081fd5b8151610b3b816138dc565b6000602082840312156132fd578081fd5b81356001600160401b03811115613312578182fd5b61125f84828501612e53565b60006020828403121561332f578081fd5b81356001600160401b03811115613344578182fd5b61125f84828501612e72565b600060208284031215613361578081fd5b610b3b82612ef9565b6000815180845261338281602086016020860161380b565b601f01601f19169290920160200192915050565b60006bffffffffffffffffffffffff198460601b16825282516133c081601485016020870161380b565b919091016014019392505050565b600085825260208083018651828801845b828110156133fb578151845292840192908401906001016133df565b5050506bffffffffffffffffffffffff198660601b1681528451613425816014840185890161380b565b01601401979650505050505050565b6000825161344681846020870161380b565b9190910192915050565b6001600160a01b03858116825284166020820152604081018390526080606082018190526000906134839083018461336a565b9695505050505050565b6001600160a01b03841681526060602082018190526000906134b19083018561336a565b905060ff83166040830152949350505050565b6001600160a01b0386168152602081018590526001600160401b0384811660408301528316606082015260a060808201819052600090610a829083018461336a565b600060208252610b3b602083018461336a565b60208082526032908201527f4552433732313a207472616e7366657220746f206e6f6e20455243373231526560408201527131b2b4bb32b91034b6b83632b6b2b73a32b960711b606082015260800190565b6020808252818101527f436f6c6c656374696f6e577261707065723a20496e76616c69642074696d652e604082015260600190565b6020808252818101527f4f776e61626c653a2063616c6c6572206973206e6f7420746865206f776e6572604082015260600190565b60208082526031908201527f4552433732313a207472616e736665722063616c6c6572206973206e6f74206f6040820152701ddb995c881b9bdc88185c1c1c9bdd9959607a1b606082015260800190565b6020808252602b908201527f496e697469616c697a61626c653a20636f6e7472616374206973206e6f74206960408201526a6e697469616c697a696e6760a81b606082015260800190565b6020808252602b908201527f4552433732314d756c7469706c65426f78577261707065723a206e6f6e65786960408201526a39ba32b73a103937b7ba1760a91b606082015260800190565b60006020825260018060a01b0383511660208301526020830151604083015260408301516001600160401b0380821660608501528060608601511660808501525050608083015160a08084015261125f60c084018261336a565b600060a082018783526020878185015260a0604085015281875180845260c0860191508289019350845b8181101561375c57845183529383019391830191600101613740565b50506001600160a01b0387166060860152848103608086015261377f818761336a565b9a9950505050505050505050565b604051601f8201601f191681016001600160401b03811182821017156137b5576137b56138a3565b604052919050565b600082198211156137d0576137d061388d565b500190565b60008160001904831182151516156137ef576137ef61388d565b500290565b6000828210156138065761380661388d565b500390565b60005b8381101561382657818101518382015260200161380e565b838111156112d45750506000910152565b60028104600182168061384b57607f821691505b6020821081141561386c57634e487b7160e01b600052602260045260246000fd5b50919050565b60006000198214156138865761388661388d565b5060010190565b634e487b7160e01b600052601160045260246000fd5b634e487b7160e01b600052604160045260246000fd5b6001600160a01b0381168114610b2c57600080fd5b8015158114610b2c57600080fd5b6001600160e01b031981168114610b2c57600080fdfea26469706673582212204d40bf212b99dac473fc14a7cabaaf0c6a8b0afa0c9a6e36ec1081dee32cefd564736f6c63430008020033"
}