{
  "address": "0xD863ff58f2f45d2CE85F538439a109250436DE1D",
  "abi": [
    {
      "anonymous": false,
      "inputs": [
        {
          "indexed": true,
          "internalType": "contract CollectionProxy",
          "name": "proxy",
          "type": "address"
        },
        {
          "indexed": false,
          "internalType": "address",
          "name": "owner",
          "type": "address"
        },
        {
          "indexed": false,
          "internalType": "string",
          "name": "name",
          "type": "string"
        },
        {
          "indexed": false,
          "internalType": "string",
          "name": "symbol",
          "type": "string"
        },
        {
          "indexed": false,
          "internalType": "bytes32",
          "name": "root",
          "type": "bytes32"
        },
        {
          "indexed": false,
          "internalType": "address",
          "name": "imp",
          "type": "address"
        },
        {
          "indexed": false,
          "internalType": "address",
          "name": "admin",
          "type": "address"
        },
        {
          "indexed": false,
          "internalType": "bytes32",
          "name": "salt",
          "type": "bytes32"
        },
        {
          "components": [
            {
              "internalType": "contract IERC20",
              "name": "payToken",
              "type": "address"
            },
            {
              "internalType": "uint256",
              "name": "price",
              "type": "uint256"
            },
            {
              "internalType": "uint64",
              "name": "open",
              "type": "uint64"
            },
            {
              "internalType": "uint64",
              "name": "close",
              "type": "uint64"
            },
            {
              "internalType": "string",
              "name": "uri",
              "type": "string"
            }
          ],
          "indexed": false,
          "internalType": "struct CollectionWrapper.Param",
          "name": "param",
          "type": "tuple"
        }
      ],
      "name": "Deployed",
      "type": "event"
    },
    {
      "inputs": [
        {
          "internalType": "address",
          "name": "owner",
          "type": "address"
        },
        {
          "internalType": "string",
          "name": "name",
          "type": "string"
        },
        {
          "internalType": "string",
          "name": "symbol",
          "type": "string"
        },
        {
          "internalType": "bytes32",
          "name": "root",
          "type": "bytes32"
        },
        {
          "internalType": "address",
          "name": "imp",
          "type": "address"
        },
        {
          "internalType": "address",
          "name": "admin",
          "type": "address"
        },
        {
          "internalType": "bytes32",
          "name": "salt",
          "type": "bytes32"
        },
        {
          "components": [
            {
              "internalType": "contract IERC20",
              "name": "payToken",
              "type": "address"
            },
            {
              "internalType": "uint256",
              "name": "price",
              "type": "uint256"
            },
            {
              "internalType": "uint64",
              "name": "open",
              "type": "uint64"
            },
            {
              "internalType": "uint64",
              "name": "close",
              "type": "uint64"
            },
            {
              "internalType": "string",
              "name": "uri",
              "type": "string"
            }
          ],
          "internalType": "struct CollectionWrapper.Param",
          "name": "param",
          "type": "tuple"
        }
      ],
      "name": "deploy",
      "outputs": [
        {
          "internalType": "contract CollectionProxy",
          "name": "proxy",
          "type": "address"
        }
      ],
      "stateMutability": "nonpayable",
      "type": "function"
    },
    {
      "inputs": [
        {
          "internalType": "address",
          "name": "owner",
          "type": "address"
        },
        {
          "internalType": "string",
          "name": "name",
          "type": "string"
        },
        {
          "internalType": "string",
          "name": "symbol",
          "type": "string"
        },
        {
          "internalType": "bytes32",
          "name": "root",
          "type": "bytes32"
        },
        {
          "internalType": "address",
          "name": "imp",
          "type": "address"
        },
        {
          "internalType": "address",
          "name": "admin",
          "type": "address"
        },
        {
          "internalType": "bytes32",
          "name": "salt",
          "type": "bytes32"
        },
        {
          "components": [
            {
              "internalType": "contract IERC20",
              "name": "payToken",
              "type": "address"
            },
            {
              "internalType": "uint256",
              "name": "price",
              "type": "uint256"
            },
            {
              "internalType": "uint64",
              "name": "open",
              "type": "uint64"
            },
            {
              "internalType": "uint64",
              "name": "close",
              "type": "uint64"
            },
            {
              "internalType": "string",
              "name": "uri",
              "type": "string"
            }
          ],
          "internalType": "struct CollectionWrapper.Param",
          "name": "param",
          "type": "tuple"
        }
      ],
      "name": "getAddress",
      "outputs": [
        {
          "internalType": "address",
          "name": "",
          "type": "address"
        }
      ],
      "stateMutability": "view",
      "type": "function"
    },
    {
      "inputs": [
        {
          "internalType": "address",
          "name": "owner",
          "type": "address"
        },
        {
          "internalType": "string",
          "name": "name",
          "type": "string"
        },
        {
          "internalType": "string",
          "name": "symbol",
          "type": "string"
        },
        {
          "internalType": "bytes32",
          "name": "root",
          "type": "bytes32"
        },
        {
          "internalType": "address",
          "name": "imp",
          "type": "address"
        },
        {
          "internalType": "address",
          "name": "admin",
          "type": "address"
        },
        {
          "components": [
            {
              "internalType": "contract IERC20",
              "name": "payToken",
              "type": "address"
            },
            {
              "internalType": "uint256",
              "name": "price",
              "type": "uint256"
            },
            {
              "internalType": "uint64",
              "name": "open",
              "type": "uint64"
            },
            {
              "internalType": "uint64",
              "name": "close",
              "type": "uint64"
            },
            {
              "internalType": "string",
              "name": "uri",
              "type": "string"
            }
          ],
          "internalType": "struct CollectionWrapper.Param",
          "name": "param",
          "type": "tuple"
        }
      ],
      "name": "getByteCode",
      "outputs": [
        {
          "internalType": "bytes",
          "name": "",
          "type": "bytes"
        }
      ],
      "stateMutability": "pure",
      "type": "function"
    },
    {
      "inputs": [
        {
          "internalType": "address",
          "name": "owner",
          "type": "address"
        },
        {
          "internalType": "string",
          "name": "name",
          "type": "string"
        },
        {
          "internalType": "string",
          "name": "symbol",
          "type": "string"
        },
        {
          "internalType": "bytes32",
          "name": "root",
          "type": "bytes32"
        },
        {
          "components": [
            {
              "internalType": "contract IERC20",
              "name": "payToken",
              "type": "address"
            },
            {
              "internalType": "uint256",
              "name": "price",
              "type": "uint256"
            },
            {
              "internalType": "uint64",
              "name": "open",
              "type": "uint64"
            },
            {
              "internalType": "uint64",
              "name": "close",
              "type": "uint64"
            },
            {
              "internalType": "string",
              "name": "uri",
              "type": "string"
            }
          ],
          "internalType": "struct CollectionWrapper.Param",
          "name": "param",
          "type": "tuple"
        }
      ],
      "name": "getData",
      "outputs": [
        {
          "internalType": "bytes",
          "name": "",
          "type": "bytes"
        }
      ],
      "stateMutability": "pure",
      "type": "function"
    }
  ],
  "transactionHash": "0x5d4a673a0431ff9e8b3e1c17608515bc70b715c1bc79d2a5b484a821da5404c8",
  "args": [],
  "bytecode": "0x608060405234801561001057600080fd5b5061126a806100206000396000f3fe60806040523480156200001157600080fd5b5060043610620000525760003560e01c80631b3dcba41462000057578063960faa121462000086578063bf1076eb14620000b6578063f687d41914620000cd575b600080fd5b6200006e6200006836600462000530565b620000e4565b6040516200007d91906200088d565b60405180910390f35b6200009d6200009736600462000456565b62000178565b6040516001600160a01b0390911681526020016200007d565b6200006e620000c736600462000607565b620001ff565b6200009d620000de36600462000456565b62000261565b6060600060405180602001620000fa9062000317565b601f1982820381018352601f9091011660405290506000620001208a8a8a8a88620001ff565b9050818686836040516020016200013a9392919062000774565b60408051601f19818403018152908290526200015a929160200162000741565b60405160208183030381529060405292505050979650505050505050565b60008030846200018e8c8c8c8c8c8c8b620000e4565b8051602091820120604051620001d9949392016001600160f81b0319815260609390931b6bffffffffffffffffffffffff191660018401526015830191909152603582015260550190565b60408051808303601f1901815291905280516020909101209a9950505050505050505050565b606063a1b17e8260e01b8686868686604051602401620002249594939291906200082b565b60408051601f198184030181529190526020810180516001600160e01b03166001600160e01b031990931692909217909152905095945050505050565b600080620002738a8a8a8a87620001ff565b905083868683604051620002879062000317565b620002959392919062000774565b8190604051809103906000f5905080158015620002b6573d6000803e3d6000fd5b509150816001600160a01b03167fea45bc4b335bdbdf8b5cebd567b9858f63b4ebb4468f9acaf10611b94b96995e8b8b8b8b8b8b8b8b60405162000302989796959493929190620007ab565b60405180910390a25098975050505050505050565b6108f5806200094083390190565b8035620003328162000926565b919050565b600082601f83011262000348578081fd5b813567ffffffffffffffff81111562000365576200036562000910565b6200037a601f8201601f1916602001620008a9565b8181528460208386010111156200038f578283fd5b816020850160208301379081016020019190915292915050565b600060a08284031215620003bb578081fd5b620003c760a0620008a9565b90508135620003d68162000926565b815260208281013590820152620003f0604083016200043d565b604082015262000403606083016200043d565b6060820152608082013567ffffffffffffffff8111156200042357600080fd5b620004318482850162000337565b60808301525092915050565b803567ffffffffffffffff811681146200033257600080fd5b600080600080600080600080610100898b03121562000473578384fd5b6200047e8962000325565b9750602089013567ffffffffffffffff808211156200049b578586fd5b620004a98c838d0162000337565b985060408b0135915080821115620004bf578586fd5b620004cd8c838d0162000337565b975060608b01359650620004e460808c0162000325565b9550620004f460a08c0162000325565b945060c08b0135935060e08b013591508082111562000511578283fd5b50620005208b828c01620003a9565b9150509295985092959890939650565b600080600080600080600060e0888a0312156200054b578283fd5b8735620005588162000926565b9650602088013567ffffffffffffffff8082111562000575578485fd5b620005838b838c0162000337565b975060408a013591508082111562000599578485fd5b620005a78b838c0162000337565b965060608a0135955060808a01359150620005c28262000926565b819450620005d360a08b0162000325565b935060c08a0135915080821115620005e9578283fd5b50620005f88a828b01620003a9565b91505092959891949750929550565b600080600080600060a086880312156200061f578081fd5b85356200062c8162000926565b9450602086013567ffffffffffffffff8082111562000649578283fd5b6200065789838a0162000337565b955060408801359150808211156200066d578283fd5b6200067b89838a0162000337565b945060608801359350608088013591508082111562000698578283fd5b50620006a788828901620003a9565b9150509295509295909350565b60008151808452620006ce816020860160208601620008dd565b601f01601f19169290920160200192915050565b600060018060a01b03825116835260208201516020840152604082015167ffffffffffffffff80821660408601528060608501511660608601525050608082015160a060808501526200073960a0850182620006b4565b949350505050565b6000835162000755818460208801620008dd565b8351908301906200076b818360208801620008dd565b01949350505050565b6001600160a01b03848116825283166020820152606060408201819052600090620007a290830184620006b4565b95945050505050565b6001600160a01b03898116825261010060208301819052600091620007d38483018c620006b4565b91508382036040850152620007e9828b620006b4565b9150886060850152808816608085015280871660a0850152508460c084015282810360e08401526200081c8185620006e2565b9b9a5050505050505050505050565b6001600160a01b038616815260a0602082018190526000906200085190830187620006b4565b8281036040840152620008658187620006b4565b90508460608401528281036080840152620008818185620006e2565b98975050505050505050565b600060208252620008a26020830184620006b4565b9392505050565b604051601f8201601f1916810167ffffffffffffffff81118282101715620008d557620008d562000910565b604052919050565b60005b83811015620008fa578181015183820152602001620008e0565b838111156200090a576000848401525b50505050565b634e487b7160e01b600052604160045260246000fd5b6001600160a01b03811681146200093c57600080fd5b5056fe608060405234801561001057600080fd5b506040516108f53803806108f583398101604081905261002f91610457565b828161005c60017f360894a13ba1a3210667c828492db98dca3e2076cc3735a920a3ca505d382bbd610572565b6000805160206108ae8339815191521461008657634e487b7160e01b600052600160045260246000fd5b610092828260006100a6565b5061009e9050826100dc565b5050506105d7565b6100af83610133565b6000825111806100bc5750805b156100d7576100d5838361017360201b6100291760201c565b505b505050565b7f7e644d79422f17c01e4894b5f4f588d331ebfa28653d42ae832dc59e38c9798f61010561019f565b604080516001600160a01b03928316815291841660208301520160405180910390a1610130816101d4565b50565b61013c81610284565b6040516001600160a01b038216907fbc7cd75a20ee27fd9adebab32041f755214dbc6bffa90cc0225b39da2e5c2d3b90600090a250565b606061019883836040518060600160405280602781526020016108ce6027913961031e565b9392505050565b60006101c560008051602061088e83398151915260001b6103fa60201b6100551760201c565b546001600160a01b0316905090565b6001600160a01b03811661023e5760405162461bcd60e51b815260206004820152602660248201527f455243313936373a206e65772061646d696e20697320746865207a65726f206160448201526564647265737360d01b60648201526084015b60405180910390fd5b8061026360008051602061088e83398151915260001b6103fa60201b6100551760201c565b80546001600160a01b0319166001600160a01b039290921691909117905550565b610297816103fd60201b6100581760201c565b6102f95760405162461bcd60e51b815260206004820152602d60248201527f455243313936373a206e657720696d706c656d656e746174696f6e206973206e60448201526c1bdd08184818dbdb9d1c9858dd609a1b6064820152608401610235565b806102636000805160206108ae83398151915260001b6103fa60201b6100551760201c565b6060610329846103fd565b6103845760405162461bcd60e51b815260206004820152602660248201527f416464726573733a2064656c65676174652063616c6c20746f206e6f6e2d636f6044820152651b9d1c9858dd60d21b6064820152608401610235565b600080856001600160a01b03168560405161039f9190610523565b600060405180830381855af49150503d80600081146103da576040519150601f19603f3d011682016040523d82523d6000602084013e6103df565b606091505b5090925090506103f0828286610407565b9695505050505050565b90565b803b15155b919050565b60608315610416575081610198565b8251156104265782518084602001fd5b8160405162461bcd60e51b8152600401610235919061053f565b80516001600160a01b038116811461040257600080fd5b60008060006060848603121561046b578283fd5b61047484610440565b925061048260208501610440565b60408501519092506001600160401b038082111561049e578283fd5b818601915086601f8301126104b1578283fd5b8151818111156104c3576104c36105c1565b604051601f8201601f19908116603f011681019083821181831017156104eb576104eb6105c1565b81604052828152896020848701011115610503578586fd5b610514836020830160208801610595565b80955050505050509250925092565b60008251610535818460208701610595565b9190910192915050565b600060208252825180602084015261055e816040850160208701610595565b601f01601f19169190910160400192915050565b60008282101561059057634e487b7160e01b81526011600452602481fd5b500390565b60005b838110156105b0578181015183820152602001610598565b838111156100d55750506000910152565b634e487b7160e01b600052604160045260246000fd5b6102a8806105e66000396000f3fe60806040523661001357610011610017565b005b6100115b61002761002261005e565b610096565b565b606061004e838360405180606001604052806027815260200161024c602791396100ba565b9392505050565b90565b3b151590565b60006100917f360894a13ba1a3210667c828492db98dca3e2076cc3735a920a3ca505d382bbc546001600160a01b031690565b905090565b3660008037600080366000845af43d6000803e8080156100b5573d6000f35b3d6000fd5b6060833b61011e5760405162461bcd60e51b815260206004820152602660248201527f416464726573733a2064656c65676174652063616c6c20746f206e6f6e2d636f6044820152651b9d1c9858dd60d21b60648201526084015b60405180910390fd5b600080856001600160a01b03168560405161013991906101cc565b600060405180830381855af49150503d8060008114610174576040519150601f19603f3d011682016040523d82523d6000602084013e610179565b606091505b5091509150610189828286610193565b9695505050505050565b606083156101a257508161004e565b8251156101b25782518084602001fd5b8160405162461bcd60e51b815260040161011591906101e8565b600082516101de81846020870161021b565b9190910192915050565b600060208252825180602084015261020781604085016020870161021b565b601f01601f19169190910160400192915050565b60005b8381101561023657818101518382015260200161021e565b83811115610245576000848401525b5050505056fe416464726573733a206c6f772d6c6576656c2064656c65676174652063616c6c206661696c6564a2646970667358221220525c3fd1604c742917652cb5e934e5b4b869951e1f7e73893e20c4015d3d03c464736f6c63430008020033b53127684a568b3173ae13b9f8a6016e243e63b6e8ee1178d6a717850b5d6103360894a13ba1a3210667c828492db98dca3e2076cc3735a920a3ca505d382bbc416464726573733a206c6f772d6c6576656c2064656c65676174652063616c6c206661696c6564a2646970667358221220d0dc1e1309409168cb9aa5cb9fdd5315c2b1c87f55dc8689d388e7e582a9198964736f6c63430008020033"
}